:100000000C942A000C948A0A0C9447000C94470024
:100010000C9447000C9447000C9447000C94470044
:100020000C9447000C9447000C9444080C947708F7
:100030000C9447000C9447000C9447000C94470024
:100040000C9447000C9447000C9447000C94470014
:100050000C94470011241FBECFE5D8E0DEBFCDBF12
:1000600011E0A0E6B0E0E0E5FEE302C005900D92ED
:10007000A23AB107D9F711E0A2EAB1E001C01D929E
:10008000AC3AB107E1F70E94921E0C94261F0C9423
:100090000000EF92FF920F931F937B018C0120E0F1
:1000A00030E040E05FE40E94490388238CF0C801FF
:1000B000B70120E030E040E05FE40E94C1010E940F
:1000C00007049B01AC01205030404040504806C01E
:1000D000C801B7010E9407049B01AC01B901CA0124
:1000E0001F910F91FF90EF900895A0E0B0E0EBE733
:1000F000F0E00C94EF1EDC012B01FA019C91923090
:1001000008F439C1EB018881823008F433C194309E
:1001100069F4843009F02FC111969C91119789815F
:10012000981709F428C1A0E6B0E025C1843009F48D
:1001300021C18230A9F4923009F01DC19A01AD01AC
:1001400088E0EA010990AE01E90109929E0181501F
:10015000C1F7E201898111969C918923818308C1AD
:10016000923009F407C112962D903C901397EB0141
:100170008A819B811496AD90BD90CD90DC901797AD
:10018000EC80FD800E811F819101281B390BB90184
:1001900037FF04C066277727621B730B6032710537
:1001A0000CF061C0121613066CF537014801062EDB
:1001B00004C096948794779467940A94D2F721E0C8
:1001C00030E040E050E004C0220F331F441F551FB1
:1001D0006A95D2F721503040404050402E213F21B7
:1001E00040235123211531054105510521F021E01E
:1001F00030E040E050E079018A01E628F72808293C
:1002000019293CC0232BD1F1260E371E350146019A
:10021000062E04C096948794779467940A94D2F734
:1002200021E030E040E050E004C0220F331F441FC3
:10023000551F6A95D2F721503040404050402A2146
:100240003B214C215D21211531054105510521F04E
:1002500021E030E040E050E059016A01A628B728CB
:10026000C828D9280BC0821593052CF01C01AA249C
:10027000BB24650103C0EE24FF24870111969C91E5
:10028000D20111968C91981709F445C0992339F041
:10029000A80197012A193B094C095D0906C0A6016E
:1002A00095012E193F09400B510B57FD08C01182D3
:1002B0003382228224833583468357831DC081E0A5
:1002C00081833382228288279927DC01821B930B4A
:1002D000A40BB50B84839583A683B7830DC0220F2F
:1002E000331F441F551F24833583468357838281E0
:1002F000938101979383828324813581468157813D
:10030000DA01C9010197A109B1098F5F9F4FAF4F72
:10031000BF4328F30BC0918333822282EA0CFB1C7B
:100320000C1D1D1DE482F5820683178383E0808304
:10033000248135814681578157FF1AC0C901AA27F8
:1003400097FDA095BA2F81709070A070B0705695EF
:10035000479537952795822B932BA42BB52B848318
:100360009583A683B7838281938101969383828349
:10037000DF0101C0D201CD01CDB7DEB7E2E10C94BF
:100380000B1FA0E2B0E0E7ECF1E00C94FB1E6983E8
:100390007A838B839C832D833E834F835887E9E048
:1003A000EE2EF12CEC0EFD1ECE010196B7010E943F
:1003B0007F058E010F5E1F4FCE010596B8010E948A
:1003C0007F058A8991E089278A8BC701B801AE0130
:1003D000475E5F4F0E9475000E94AA04A096E6E067
:1003E0000C94171FA0E2B0E0E8EFF1E00C94FB1EC4
:1003F00069837A838B839C832D833E834F835887C5
:10040000F9E0EF2EF12CEC0EFD1ECE010196B701A6
:100410000E947F058E010F5E1F4FCE010596B80129
:100420000E947F05C701B801AE01475E5F4F0E9481
:1004300075000E94AA04A096E6E00C94171FA0E2A3
:10044000B0E0E5E2F2E00C94EF1E69837A838B83DF
:100450009C832D833E834F835887CE010196BE0136
:10046000675F7F4F0E947F05CE010596BE016F5EDC
:100470007F4F0E947F059985923088F0898982306C
:10048000C8F0943019F4823051F404C0843029F457
:10049000923081F480E690E0C6C0923049F420E0CA
:1004A0009A858A89981321E02A87CE010996BBC0D4
:1004B000823049F420E09A858A89981321E02A8BBA
:1004C000CE014196B0C02D843E844F8458886D88FB
:1004D0007E888F88988CEE24FF248701AA24BB2471
:1004E000650140E050E060E070E0E0E0F0E0C10174
:1004F00081709070892BE9F0E60CF71C081D191D1E
:100500009A01AB012A0D3B1D4C1D5D1D80E090E062
:10051000A0E0B0E0E614F7040805190520F481E036
:1005200090E0A0E0B0E0BA01A901480F591F6A1F8E
:100530007B1FAA0CBB1CCC1CDD1C97FE08C081E0F5
:1005400090E0A0E0B0E0A82AB92ACA2ADB2A3196B6
:10055000E032F10549F0660C771C881C991C569412
:10056000479437942794C3CFFA85EA892B893C892D
:100570008B859C85280F391F2E5F3F4F17C0CA01FE
:1005800081709070892B61F016950795F794E79428
:1005900080E090E0A0E0B0E8E82AF92A0A2B1B2BC3
:1005A00076956795579547952F5F3F4F77FDE7CF36
:1005B0000CC0440F551F661F771F17FD4160EE0CDE
:1005C000FF1C001F111F21503040403090E05907A0
:1005D00090E0690790E4790760F32B8F3C8FDB0193
:1005E000CA018F779070A070B07080349105A1051A
:1005F000B10561F447FD0AC0E114F10401051105DC
:1006000029F0405C5F4F6F4F7F4F40781A8EFE1786
:1006100011F081E08A8F4D8F5E8F6F8F78A383E01A
:10062000898FCE0149960E94AA04A096E2E10C941B
:100630000B1FA8E1B0E0EFE1F3E00C94FB1E69832F
:100640007A838B839C832D833E834F83588789E0F5
:10065000E82EF12CEC0EFD1ECE010196B7010E9492
:100660007F058E010F5E1F4FCE010596B8010E94D7
:100670007F058985823040F08989823028F0C70162
:10068000B8010E94F70501C08FEF6896E6E00C9470
:10069000171FA8E1B0E0EFE4F3E00C94FB1E6983C0
:1006A0007A838B839C832D833E834F83588789E095
:1006B000E82EF12CEC0EFD1ECE010196B7010E9432
:1006C0007F058E010F5E1F4FCE010596B8010E9477
:1006D0007F058985823040F08989823028F0C70102
:1006E000B8010E94F70501C08FEF6896E6E00C9410
:1006F000171FA8E1B0E0EFE7F3E00C94FB1E69835D
:100700007A838B839C832D833E834F83588789E034
:10071000E82EF12CEC0EFD1ECE010196B7010E94D1
:100720007F058E010F5E1F4FCE010596B8010E9416
:100730007F058985823040F08989823028F0C701A1
:10074000B8010E94F70501C081E06896E6E00C94CC
:10075000171FA8E0B0E0EFEAF3E00C94F81E9B014D
:10076000AC0183E08983DA01C9018827B7FD83954D
:100770009927AA27BB27B82E211531054105510518
:1007800019F482E089833AC08823A9F0203080E000
:10079000380780E0480780E8580729F460E070E0F7
:1007A00080E09FEC30C0EE24FF248701E21AF30AB8
:1007B000040B150B02C079018A018EE1C82ED12CE1
:1007C000DC82CB82ED82FE820F831887C801B701DD
:1007D0000E945B0401971816190684F4082E04C0C1
:1007E000EE0CFF1C001F111F0A94D2F7ED82FE824F
:1007F0000F831887C81AD90ADC82CB82BA82CE014D
:1008000001960E94AA042896E9E00C94141FACE01B
:10081000B0E0EDE0F4E00C94FF1E69837A838B83F3
:100820009C83CE010196BE016B5F7F4F0E947F05C6
:100830008D81823061F1823050F1843021F48E81DB
:10084000882351F12EC02F81388537FD20C06E815D
:100850002F3131051CF06623F9F023C08EE190E0C2
:10086000821B930B29853A854B855C8504C0569580
:100870004795379527958A95D2F76623B1F050951D
:100880004095309521953F4F4F4F5F4F0EC020E070
:1008900030E040E050E009C02FEF3FEF4FEF5FE75F
:1008A00004C020E030E040E050E8B901CA012C96D5
:1008B000E2E00C941B1FEF92FF920F931F937B01BA
:1008C0008C0180E0E81680E0F80681E0080780E00F
:1008D000180788F48FEFE816F1040105110531F0CF
:1008E00028F088E090E0A0E0B0E017C080E090E061
:1008F000A0E0B0E012C080E0E81680E0F80680E0FA
:10090000080781E0180728F088E190E0A0E0B0E057
:1009100004C080E190E0A0E0B0E020E230E040E000
:1009200050E0281B390B4A0B5B0B04C0169507954A
:10093000F794E7948A95D2F7F701E859FF4F808141
:10094000281B310941095109C9011F910F91FF90DD
:10095000EF900895DF92EF92FF920F931F93FC01A7
:10096000E480F58006811781D1808081823048F44F
:1009700080E090E0A0E1B0E0E82AF92A0A2B1B2BE6
:10098000A5C0843009F49FC0823021F4EE24FF24F6
:10099000870105C0E114F1040105110519F4E0E037
:1009A000F0E096C0628173819FEF623879070CF0A6
:1009B0005BC022E83FEF261B370B2A3131052CF0B4
:1009C00020E030E040E050E02AC0B801A701022E4C
:1009D00004C076956795579547950A94D2F781E0BC
:1009E00090E0A0E0B0E004C0880F991FAA1FBB1FD1
:1009F0002A95D2F70197A109B1098E219F21A02341
:100A0000B1230097A105B10521F081E090E0A0E0BD
:100A1000B0E09A01AB01282B392B4A2B5B2BDA0172
:100A2000C9018F779070A070B07080349105A105D6
:100A3000B10539F427FF09C0205C3F4F4F4F5F4F8E
:100A400004C0215C3F4F4F4F5F4FE0E0F0E02030AB
:100A5000A0E03A07A0E04A07A0E45A0710F0E1E05E
:100A6000F0E079018A0127C06038710564F5FB0167
:100A7000E158FF4FD801C7018F779070A070B07018
:100A800080349105A105B10539F4E7FE0DC080E47D
:100A900090E0A0E0B0E004C08FE390E0A0E0B0E020
:100AA000E80EF91E0A1F1B1F17FF05C016950795B4
:100AB000F794E794319687E016950795F794E794B5
:100AC0008A95D1F705C0EE24FF248701EFEFF0E00F
:100AD0006E2F679566276795902F9F77D794DD24B3
:100AE000D7948E2F8695492F462B582F5D29B70115
:100AF000CA011F910F91FF90EF90DF900895FC01C4
:100B0000DB01408151812281622F6F7770E0221FCB
:100B10002227221F9381892F880F822B282F30E0D4
:100B2000991F9927991F11969C93119721153105AB
:100B3000A9F5411551056105710511F482E037C031
:100B400082E89FEF13969C938E9312979A01AB01C4
:100B500067E0220F331F441F551F6A95D1F783E0CA
:100B60008C930DC0220F331F441F551F12968D9179
:100B70009C911397019713969C938E931297203014
:100B800080E0380780E0480780E4580758F314965F
:100B90002D933D934D935C93179708952F3F310507
:100BA00079F4411551056105710519F484E08C93C0
:100BB000089564FF03C081E08C9312C01C9210C0A2
:100BC0002F57304013963C932E93129783E08C93CB
:100BD00087E0440F551F661F771F8A95D1F7706411
:100BE00014964D935D936D937C93179708951F937F
:100BF000DC01FB019C91923008F447C08081823077
:100C000008F443C0943051F411961C91843099F546
:100C10008181682F70E0611B71093FC0843021F031
:100C2000923031F48230B9F18181882389F12DC06D
:100C300011961C9111978230F1F081811817D9F427
:100C400012962D913C91139782819381821793077D
:100C500094F028173907BCF014968D919D910D9052
:100C6000BC91A02D248135814681578128173907F1
:100C70004A075B0718F4112341F00AC08217930753
:100C8000A407B50740F4112319F061E070E005C036
:100C90006FEF7FEF02C060E070E0CB011F9108951D
:100CA000DF93CF9300D000D0CDB7DEB79A8389838E
:100CB000E981FA818081882321F5A3E5B0E0E3E5AD
:100CC000F0E08081877F8C93A3E5B0E0E3E5F0E07E
:100CD00080818F7B8C93A9E5B0E0E9E5F0E080812D
:100CE00081608C93AFE5B0E0EFE5F0E08081806853
:100CF0008C93A8E5B0E0E8E5F0E0808181608C931A
:100D000033C0E981FA818081813071F5A3E5B0E0DB
:100D1000E3E5F0E0808188608C93A3E5B0E0E3E553
:100D2000F0E080818F7B8C93A3E5B0E0E3E5F0E019
:100D3000808180628C93A3E5B0E0E3E5F0E0808100
:100D400080618C93A9E5B0E0E9E5F0E08081826004
:100D50008C93AFE5B0E0EFE5F0E0808180688C93A4
:100D6000ECE5F0E089EF8083E981FA818181282F29
:100D700030E03C832B838B819C818130910561F134
:100D80002B813C81223031052CF48B819C81009792
:100D900069F063C02B813C812230310599F18B8150
:100DA0009C818330910509F443C057C0A3E5B0E0AE
:100DB000E3E5F0E080818E7F8C93A3E5B0E0E3E58E
:100DC000F0E0808182608C93A3E5B0E0E3E5F0E0A1
:100DD00080818B7F8C9341C0A3E5B0E0E3E5F0E038
:100DE000808181608C93A3E5B0E0E3E5F0E0808151
:100DF00082608C93A3E5B0E0E3E5F0E080818B7F37
:100E00008C932BC0A3E5B0E0E3E5F0E080818E7F1A
:100E10008C93A3E5B0E0E3E5F0E080818D7F8C93D7
:100E2000A3E5B0E0E3E5F0E0808184608C9315C039
:100E3000A3E5B0E0E3E5F0E0808181608C93A3E579
:100E4000B0E0E3E5F0E080818D7F8C93A3E5B0E036
:100E5000E3E5F0E0808184608C930F900F900F9019
:100E60000F90CF91DF910895DF93CF9300D0CDB74E
:100E7000DEB79A838983E981FA818081823009F023
:100E800080C0A3E5B0E0E3E5F0E08081877F8C934C
:100E9000A3E5B0E0E3E5F0E0808180648C93A3E516
:100EA000B0E0E3E5F0E0808180628C93A3E5B0E000
:100EB000E3E5F0E0808180618C93A3E5B0E0E3E5B9
:100EC000F0E080818E7F8C93A3E5B0E0E3E5F0E075
:100ED000808182608C93A3E5B0E0E3E5F0E080815F
:100EE0008B7F8C93AFE5B0E0EFE5F0E08081806828
:100EF0008C93ECE5F0E01082E981FA81808188230F
:100F0000E9F4A3E5B0E0E3E5F0E0808180628C9352
:100F1000A3E5B0E0E3E5F0E080818F7E8C93A9E566
:100F2000B0E0E9E5F0E0808181608C93A9E5B0E074
:100F3000E9E5F0E0808182608C938FC0E981FA81DD
:100F40008081813009F089C0A3E5B0E0E3E5F0E0FD
:100F5000808180628C93A3E5B0E0E3E5F0E08081DE
:100F600080618C93A9E5B0E0E9E5F0E080818160E3
:100F70008C93A9E5B0E0E9E5F0E0808182608C9394
:100F80006CC0E981FA818081833009F066C0A3E5F5
:100F9000B0E0E3E5F0E0808188608C93A3E5B0E009
:100FA000E3E5F0E0808180648C93A9E5B0E0E9E5B9
:100FB000F0E080818E7F8C93A9E5B0E0E9E5F0E078
:100FC000808182608C93A3E5B0E0E3E5F0E080816E
:100FD00081608C93A3E5B0E0E3E5F0E0808182607E
:100FE0008C93A3E5B0E0E3E5F0E080818B7F8C9308
:100FF000AFE5B0E0EFE5F0E0808180688C93ECE550
:10100000F0E08DE78083E2E5F0E01082E981FA818B
:101010008081882379F4A3E5B0E0E3E5F0E0808106
:1010200080628C93A3E5B0E0E3E5F0E080818F7E01
:101030008C9313C0E981FA818081813071F4A3E53A
:10104000B0E0E3E5F0E0808180628C93A3E5B0E05E
:10105000E3E5F0E0808180618C930F900F90CF9159
:10106000DF910895DF93CF9300D0CDB7DEB79A8399
:10107000898389819A819093A3018093A2010F9023
:101080000F90CF91DF9108951F920F920FB60F929C
:1010900011242F933F934F935F936F937F938F937D
:1010A0009F93AF93BF93EF93FF93DF93CF93CDB70E
:1010B000DEB78091A2019091A301009729F0E09101
:1010C000A201F091A3010995CF91DF91FF91EF91DA
:1010D000BF91AF919F918F917F916F915F914F9150
:1010E0003F912F910F900FBE0F901F9018951F9258
:1010F0000F920FB60F9211242F933F934F935F934C
:101100006F937F938F939F93AF93BF93EF93FF93CF
:10111000DF93CF93CDB7DEB78091A2019091A30169
:10112000009729F0E091A201F091A3010995CF91D8
:10113000DF91FF91EF91BF91AF919F918F917F913F
:101140006F915F914F913F912F910F900FBE0F9034
:101150001F901895DF93CF93CDB7DEB72A970FB6C0
:10116000F894DEBF0FBECDBF9A838983E981FA81EF
:101170008081882309F08EC083E062E040E00E9415
:10118000CF0A83E062E041E00E94E20BE981FA814C
:101190008181282F30E0398728878885998581309B
:1011A000910521F128853985223031052CF4888577
:1011B0009985009761F047C028853985223031052F
:1011C00021F1888599858330910571F13CC0A5E5B1
:1011D000B0E0E5E5F0E080818E7F8C93A5E5B0E09E
:1011E000E5E5F0E080818D7F8C9330C0A5E5B0E02F
:1011F000E5E5F0E0808181608C93A5E5B0E0E5E570
:10120000F0E080818D7F8C9321C0A5E5B0E0E5E51D
:10121000F0E080818E7F8C93A5E5B0E0E5E5F0E01D
:10122000808182608C9312C0A5E5B0E0E5E5F0E036
:10123000808181608C93A5E5B0E0E5E5F0E08081F8
:1012400082608C9303C091E09F8314C1E981FA818D
:101250008281882341F4ABE5B0E0EBE5F0E08081EA
:101260008F7B8C9306C1E981FA818281813079F488
:10127000ABE5B0E0EBE5F0E0808180648C93AFE516
:10128000B0E0EFE5F0E0808180688C93F2C022E06E
:101290002F83F0C0E981FA818081813009F08EC00E
:1012A00083E063E040E00E94CF0A83E063E041E036
:1012B0000E94E20BE981FA818181282F30E03E8390
:1012C0002D838D819E818130910521F12D813E817B
:1012D000223031052CF48D819E81009761F047C04A
:1012E0002D813E812230310521F18D819E81833017
:1012F000910571F13CC0A5E5B0E0E5E5F0E0808145
:101300008B7F8C93A5E5B0E0E5E5F0E08081877FF9
:101310008C9330C0A5E5B0E0E5E5F0E08081846025
:101320008C93A5E5B0E0E5E5F0E08081877F8C93C4
:1013300021C0A5E5B0E0E5E5F0E080818B7F8C93EE
:10134000A5E5B0E0E5E5F0E0808188608C9312C00F
:10135000A5E5B0E0E5E5F0E0808184608C93A5E54B
:10136000B0E0E5E5F0E0808188608C9303C091E017
:101370009F8380C0E981FA818281882341F4ABE5B3
:10138000B0E0EBE5F0E080818F778C9372C0E9816B
:10139000FA818281813079F4ABE5B0E0EBE5F0E0F1
:1013A000808180688C93AFE5B0E0EFE5F0E080816C
:1013B00080688C935EC022E02F835CC0E981FA8153
:1013C0008081823009F053C081E062E040E00E94F9
:1013D000CF0A81E062E041E00E94E20BE981FA81FC
:1013E0008181282F30E03C832B838B819C8182304C
:1013F000910531F02B813C812330310549F010C03B
:10140000A4E5B0E0E4E5F0E080818F7B8C930BC035
:10141000A4E5B0E0E4E5F0E0808180648C9303C053
:1014200031E03F8327C0E981FA818281882341F43A
:10143000ABE5B0E0EBE5F0E080818F7D8C9319C0E7
:10144000E981FA818281813079F4ABE5B0E0EBE5A6
:10145000F0E0808180628C93AFE5B0E0EFE5F0E0F2
:10146000808180688C9305C082E08F8303C01F82D7
:1014700001C002C09F819A878A852A960FB6F89488
:10148000DEBF0FBECDBFCF91DF910895DF93CF9325
:1014900000D00F92CDB7DEB79A838983E981FA81B4
:1014A0008081882379F4EAE5F0E080818295869551
:1014B00086958370882F90E081709070009799F3E3
:1014C0001B8221C0E981FA818081813039F4EAE50B
:1014D000F0E080818823DCF71B8215C0E981FA8166
:1014E0008081823071F4EAE5F0E080818295869512
:1014F0008770882F90E0817090700097A1F31B8215
:1015000002C081E08B838B810F900F900F90CF9161
:10151000DF9108951F920F920FB60F9211242F930F
:101520003F934F935F936F937F938F939F93AF936B
:10153000BF93EF93FF93DF93CF93CDB7DEB7809147
:10154000A4019091A501009729F0E091A401F091E8
:10155000A5010995CF91DF91FF91EF91BF91AF91D7
:101560009F918F917F916F915F914F913F912F91BB
:101570000F900FBE0F901F901895DF93CF9300D060
:10158000CDB7DEB79A83898389819A819093A5012B
:101590008093A4010F900F90CF91DF910895DF9376
:1015A000CF93CDB7DEB728970FB6F894DEBF0FBE46
:1015B000CDBF89836A834B838A81883008F0F6C067
:1015C0008B81882309F077C08981282F30E0388704
:1015D0002F838F8198858130910559F12F8138852E
:1015E000223031052CF48F819885009769F060C016
:1015F0002F8138852230310589F18F81988583309C
:10160000910509F440C054C0AAE3B0E0EAE3F0E079
:101610008081482F8A81282F30E081E090E0022EDF
:1016200002C0880F991F0A94E2F7809584238C9357
:10163000BBC0A7E3B0E0E7E3F0E08081482F8A81F8
:10164000282F30E081E090E0022E02C0880F991F21
:101650000A94E2F7809584238C93A6C0A4E3B0E0BB
:10166000E4E3F0E08081482F8A81282F30E081E098
:1016700090E0022E02C0880F991F0A94E2F780952D
:1016800084238C9391C0A1E3B0E0E1E3F0E080819A
:10169000482F8A81282F30E081E090E0022E02C09E
:1016A000880F991F0A94E2F7809584238C937CC05D
:1016B00091E09E837DC08B81813009F072C0898169
:1016C000282F30E03D832C838C819D8181309105D2
:1016D00049F12C813D81223031052CF48C819D8192
:1016E000009761F05BC02C813D812230310571F1A2
:1016F0008C819D8183309105E9F150C0AAE3B0E06F
:10170000EAE3F0E08081482F8A81282F30E081E0F1
:1017100090E0022E02C0880F991F0A94E2F7842BF2
:101720008C9342C0A7E3B0E0E7E3F0E08081482F6C
:101730008A81282F30E081E090E0022E02C0880FDD
:10174000991F0A94E2F7842B8C932EC0A4E3B0E097
:10175000E4E3F0E08081482F8A81282F30E081E0A7
:1017600090E0022E02C0880F991F0A94E2F7842BA2
:101770008C931AC0A1E3B0E0E1E3F0E08081482F50
:101780008A81282F30E081E090E0022E02C0880F8D
:10179000991F0A94E2F7842B8C9306C091E09E83F4
:1017A00007C023E02E8304C01E8202C032E03E83C5
:1017B0008E8128960FB6F894DEBF0FBECDBFCF91B5
:1017C000DF910895DF93CF93CDB7DEB728970FB69B
:1017D000F894DEBF0FBECDBF89836A834B838A81B5
:1017E000883008F0F6C08B81882309F077C08981A2
:1017F000282F30E038872F838F819885813091059D
:1018000059F12F813885223031052CF48F8198854C
:10181000009769F060C02F8138852230310589F149
:101820008F8198858330910509F440C054C0ABE3A3
:10183000B0E0EBE3F0E08081482F8A81282F30E090
:1018400081E090E0022E02C0880F991F0A94E2F70F
:10185000809584238C93BBC0A8E3B0E0E8E3F0E07C
:101860008081482F8A81282F30E081E090E0022E8D
:1018700002C0880F991F0A94E2F7809584238C9305
:10188000A6C0A5E3B0E0E5E3F0E08081482F8A81BF
:10189000282F30E081E090E0022E02C0880F991FCF
:1018A0000A94E2F7809584238C9391C0A2E3B0E080
:1018B000E2E3F0E08081482F8A81282F30E081E048
:1018C00090E0022E02C0880F991F0A94E2F78095DB
:1018D00084238C937CC091E09E837DC08B8181307A
:1018E00009F072C08981282F30E03D832C838C81E0
:1018F0009D818130910549F12C813D812230310556
:101900002CF48C819D81009761F05BC02C813D811E
:101910002230310571F18C819D8183309105E9F18F
:1019200050C0ABE3B0E0EBE3F0E08081482F8A8168
:10193000282F30E081E090E0022E02C0880F991F2E
:101940000A94E2F7842B8C9342C0A8E3B0E0E8E36A
:10195000F0E08081482F8A81282F30E081E090E0FC
:10196000022E02C0880F991F0A94E2F7842B8C93F1
:101970002EC0A5E3B0E0E5E3F0E08081482F8A8146
:10198000282F30E081E090E0022E02C0880F991FDE
:101990000A94E2F7842B8C931AC0A2E3B0E0E2E34E
:1019A000F0E08081482F8A81282F30E081E090E0AC
:1019B000022E02C0880F991F0A94E2F7842B8C93A1
:1019C00006C091E09E8307C023E02E8304C01E82E0
:1019D00002C032E03E838E8128960FB6F894DEBFB7
:1019E0000FBECDBFCF91DF910895DF93CF93CDB7D9
:1019F000DEB727970FB6F894DEBF0FBECDBF898341
:101A00006A835C834B838A81883008F076C0898141
:101A1000282F30E03F832E834E815F814130510576
:101A200059F18E819F818230910534F42E813F815E
:101A30002115310569F05CC04E815F81423051054E
:101A400079F18E819F818330910509F43DC050C0AA
:101A5000E9E3F0E08081282F30E08A81882F90E050
:101A6000A90102C0559547958A95E2F7CA01817090
:101A7000EB81FC8180833FC0E6E3F0E08081282F8A
:101A800030E08A81882F90E0A90102C055954795E2
:101A90008A95E2F7CA018170EB81FC8180832BC0BB
:101AA000E3E3F0E08081282F30E08A81882F90E006
:101AB000A90102C0559547958A95E2F7CA01817040
:101AC000EB81FC81808317C0E0E3F0E08081282F68
:101AD00030E08A81882F90E0A90102C05595479592
:101AE0008A95E2F7CA018170EB81FC81808303C093
:101AF00051E05D8304C01D8202C082E08D838D8130
:101B000027960FB6F894DEBF0FBECDBFCF91DF9101
:101B10000895DF93CF9300D000D00F92CDB7DEB7FA
:101B200089836A838981282F30E03D832C838C81CF
:101B30009D8181309105D1F02C813D81223031058C
:101B40002CF48C819D81009761F01FC02C813D8118
:101B50002230310581F08C819D818330910581F0A7
:101B600014C0EAE3F0E08A81808312C0E7E3F0E08A
:101B70008A8180830DC0E4E3F0E08A81808308C01D
:101B8000E1E3F0E08A81808303C091E09B8301C0A0
:101B90001B828B810F900F900F900F900F90CF9121
:101BA000DF910895DF93CF9300D000D00F92CDB78F
:101BB000DEB789836A838981282F30E03D832C83B7
:101BC0008C819D8181309105D1F02C813D81223025
:101BD00031052CF48C819D81009761F01FC02C8110
:101BE0003D812230310581F08C819D8183309105CA
:101BF00081F014C0EBE3F0E08A81808312C0E8E357
:101C0000F0E08A8180830DC0E5E3F0E08A81808383
:101C100008C0E2E3F0E08A81808303C091E09B8307
:101C200001C01B828B810F900F900F900F900F902F
:101C3000CF91DF910895DF93CF9300D000D000D0F3
:101C4000CDB7DEB789837B836A838A819B810097C6
:101C500009F440C08981282F30E03E832D838D8197
:101C60009E8181309105E1F02D813E812230310548
:101C70002CF48D819E81009761F027C02D813E81DB
:101C800022303105A1F08D819E8183309105B1F024
:101C90001CC0E9E3F0E08081EA81FB81808318C009
:101CA000E6E3F0E08081EA81FB81808311C0E3E319
:101CB000F0E08081EA81FB8180830AC0E0E3F0E00C
:101CC0008081EA81FB81808303C091E09C8304C012
:101CD0001C8202C025E02C838C8126960FB6F894D6
:101CE000DEBF0FBECDBFCF91DF910895DF93CF93BD
:101CF00000D000D000D0CDB7DEB79B838A837D8330
:101D00006C83EA81FB818281882331F5EA81FB8142
:101D10008081EA81FB819181692F40E00E94CF0A96
:101D2000EA81FB818081EA81FB819181692F41E019
:101D30000E94E20BEA81FB818081EA81FB81918133
:101D4000692F9E012F5F3F4FA9010E94F50C8981E9
:101D5000EC81FD8180833CC0EA81FB8182818130FE
:101D600091F4EA81FB818081EA81FB819181692F75
:101D70009E012F5F3F4FA9010E94F50C8981EC81E4
:101D8000FD81808325C0EA81FB8182818230E1F47C
:101D9000EA81FB818081EA81FB819181692F9E012B
:101DA0002F5F3F4FA9010E94F50C8981813021F4FA
:101DB000EC81FD8110820CC08981882349F4EC817B
:101DC000FD8181E0808304C081E08E838E8100C02C
:101DD00026960FB6F894DEBF0FBECDBFCF91DF9130
:101DE0000895DF93CF9300D000D00F92CDB7DEB728
:101DF0009A838983E981FA818081E981FA819181DD
:101E0000692F41E00E94CF0AE981FA818281282F5F
:101E100030E03C832B838B819C81009731F02B81B8
:101E20003C812130310561F016C0E981FA81808161
:101E3000E981FA819181692F41E00E94E20B0FC094
:101E4000E981FA818081E981FA819181692F40E0FD
:101E50000E94E20B04C080E08D838D8100C00F9052
:101E60000F900F900F900F90CF91DF910895DF9317
:101E7000CF9300D000D00F92CDB7DEB79A8389837D
:101E8000E981FA818081E981FA819181692F41E0BC
:101E90000E94CF0AE981FA818281282F30E03C83B9
:101EA0002B838B819C81009731F02B813C812130E9
:101EB000310561F016C0E981FA818081E981FA81FA
:101EC0009181692F40E00E94E20B0FC0E981FA8105
:101ED0008081E981FA819181692F41E00E94E20BC2
:101EE00004C080E08D838D8100C00F900F900F9013
:101EF0000F900F90CF91DF910895DF93CF93CDB7DF
:101F0000DEB76F970FB6F894DEBF0FBECDBF8D8FD3
:101F10007F8F6E8FEE8DFF8D8081482F50E0EE8D8C
:101F2000FF8D8381282F30E0CA01B90140E050E0E5
:101F30000E94E20BEE8DFF8D8181482F50E0EE8DE7
:101F4000FF8D8481282F30E0CA01B90140E050E0C4
:101F50000E94E20BEE8DFF8D8681482F50E08D8D23
:101F6000282F30E0CA01B9010E94D20DEE8DFF8DFD
:101F70008281482F50E0EE8DFF8D8581282F30E043
:101F8000CA01B90141E050E00E94E20B80E090E01C
:101F9000A0E8BFE3898F9A8FAB8FBC8F698D7A8D54
:101FA0008B8D9C8D20E030E04AEF54E40E941F02AC
:101FB000DC01CB018D8B9E8BAF8BB88F6D897E89B9
:101FC0008F89988D20E030E040E85FE30E9479033C
:101FD00088232CF481E090E09C8B8B8B3FC06D8933
:101FE0007E898F89988D20E03FEF4FE757E40E946C
:101FF000190318164CF5698D7A8D8B8D9C8D20E018
:1020000030E040E251E40E941F02DC01CB01BC0140
:10201000CD010E944900DC01CB019C8B8B8B0FC052
:1020200088EC90E09A8B898B89899A890197F1F7DE
:102030009A8B898B8B899C8901979C8B8B8B8B8945
:102040009C89009769F714C06D897E898F89988D66
:102050000E944900DC01CB019C8B8B8B8B899C8976
:10206000988B8F878F8598890197F1F7988B8F8749
:10207000EE8DFF8D8281482F50E0EE8DFF8D8581A2
:10208000282F30E0CA01B90140E050E00E94E20B85
:1020900080E090E0A0E8BFE38B879C87AD87BE8798
:1020A0006B857C858D859E8520E030E04AEF54E489
:1020B0000E941F02DC01CB018F839887A987BA8712
:1020C0006F81788589859A8520E030E040E85FE37C
:1020D0000E94790388232CF481E090E09E838D8315
:1020E0003FC06F81788589859A8520E03FEF4FE773
:1020F00057E40E94190318164CF56B857C858D8575
:102100009E8520E030E040E251E40E941F02DC01A5
:10211000CB01BC01CD010E944900DC01CB019E83B3
:102120008D830FC088EC90E09C838B838B819C8196
:102130000197F1F79C838B838D819E8101979E830C
:102140008D838D819E81009769F714C06F8178859A
:1021500089859A850E944900DC01CB019E838D838D
:102160008D819E819A83898389819A810197F1F774
:102170009A8389836F960FB6F894DEBF0FBECDBFEA
:10218000CF91DF910895DF93CF9300D000D00F92CD
:10219000CDB7DEB79B838A836C834D8319828C8194
:1021A000882319F48D81898306C08C81813019F4CC
:1021B0008D81805C8983898180582A813B81B90126
:1021C0000E947D0F0F900F900F900F900F90CF9166
:1021D000DF910895DF93CF93CDB7DEB76F970FB63A
:1021E000F894DEBF0FBECDBF8D8F7F8F6E8FEE8DCB
:1021F000FF8D8081482F50E0EE8DFF8D8381282F49
:1022000030E0CA01B90141E050E00E94E20BEE8DDE
:10221000FF8D8181482F50E0EE8DFF8D8481282F26
:1022200030E0CA01B90140E050E00E94E20BEE8DBF
:10223000FF8D8681482F50E08D8D282F30E0CA0118
:10224000B9010E94D20DEE8DFF8D8281482F50E0A2
:10225000EE8DFF8D8581282F30E0CA01B90141E064
:1022600050E00E94E20B80E090E0A0E8BFE3898F9D
:102270009A8FAB8FBC8F698D7A8D8B8D9C8D20E072
:1022800030E04AEF54E40E941F02DC01CB018D8B49
:102290009E8BAF8BB88F6D897E898F89988D20E05A
:1022A00030E040E85FE30E94790388232CF481E06A
:1022B00090E09C8B8B8B3FC06D897E898F89988D38
:1022C00020E03FEF4FE757E40E94190318164CF542
:1022D000698D7A8D8B8D9C8D20E030E040E251E459
:1022E0000E941F02DC01CB01BC01CD010E9449000C
:1022F000DC01CB019C8B8B8B0FC088EC90E09A8B20
:10230000898B89899A890197F1F79A8B898B8B89B7
:102310009C8901979C8B8B8B8B899C89009769F793
:1023200014C06D897E898F89988D0E944900DC01D7
:10233000CB019C8B8B8B8B899C89988B8F878F850E
:1023400098890197F1F7988B8F87EE8DFF8D8281A9
:10235000482F50E0EE8DFF8D8581282F30E0CA0197
:10236000B90140E050E00E94E20B80E090E0A0E87C
:10237000BFE38B879C87AD87BE876B857C858D850A
:102380009E8520E030E04AEF54E40E941F02DC0109
:10239000CB018F839887A987BA876F8178858985D4
:1023A0009A8520E030E040E85FE30E9479038823CB
:1023B0002CF481E090E09E838D833FC06F8178850F
:1023C00089859A8520E03FEF4FE757E40E94190383
:1023D00018164CF56B857C858D859E8520E030E058
:1023E00040E251E40E941F02DC01CB01BC01CD019F
:1023F0000E944900DC01CB019E838D830FC088ECD5
:1024000090E09C838B838B819C810197F1F79C8367
:102410008B838D819E8101979E838D838D819E818B
:10242000009769F714C06F81788589859A850E9425
:102430004900DC01CB019E838D838D819E819A832F
:10244000898389819A810197F1F79A8389836F96AD
:102450000FB6F894DEBF0FBECDBFCF91DF910895C8
:10246000DF93CF93CDB7DEB727970FB6F894DEBFD3
:102470000FBECDBF9C838B836D835F834E832E8184
:102480003F818D81B9010E94EA108D81882F90E0F3
:102490000896880F991F880F991F880F991F2E8102
:1024A0003F81B9010E947D0F1A82198212C02981D1
:1024B0003A818B819C81FC01E20FF31F80812E8188
:1024C0003F81B9010E94EA1089819A8101969A831D
:1024D000898389819A81883091054CF327960FB6BC
:1024E000F894DEBF0FBECDBFCF91DF910895DF938B
:1024F000CF93CDB7DEB7E6970FB6F894DEBF0FBE29
:10250000CDBF6FA378A789A79AA75CA74BA72DB7C4
:102510003EB73EAB2DAB8DB79EB79EA78DA718A239
:102520001F8E83E090E09E8F8D8F6FA178A589A587
:102530009AA50E940704DC01CB019C8F8B8F6FA1B1
:1025400078A589A59AA50E940704DC01CB019A8F82
:10255000898F8B8D9C8DAA2797FDA095BA2FBC01E2
:10256000CD010E94A9039B01AC016FA178A589A5AB
:102570009AA50E94C101DC01CB018D8B9E8BAF8B94
:10258000B88F0FC08F8D98A1019698A38F8F898DDA
:102590009A8D2AE030E0B9010E94C81ECB019A8FC3
:1025A000898F898D9A8D009769F72F8D38A18D8D30
:1025B0009E8D820F931F0196880F991F4DB75EB7AE
:1025C000481B590B0FB6F8945EBF0FBE4DBF8DB7B9
:1025D0009EB701969CAB8BAB8BA99CA900969CAB3C
:1025E0008BAB2BA93CA93EA32DA32F8D38A18D8D9C
:1025F0009E8D820F931F0196880F991F4DB75EB76E
:10260000481B590B0FB6F8945EBF0FBE4DBF8DB778
:102610009EB701969AAB89AB89A99AA900969AAB05
:1026200089AB29A93AA93CA32BA32F8D38A18D8D65
:102630009E8D820F931F0196880F991F4DB75EB72D
:10264000481B590B0FB6F8945EBF0FBE4DBF8DB738
:102650009EB7019698AB8FA78FA598A9009698ABC7
:102660008FA72FA538A93AA329A31C8A1B8A24C0A7
:102670008B899C8901969C8B8B8BEB89FC898B8D3C
:102680009C8D2AE030E0B9010E94C81EC096AC01C2
:102690002DA13EA1CF01880F991FF901E80FF91F65
:1026A000518340838B8D9C8D2AE030E0B9010E94DC
:1026B000C81ECB019C8F8B8F8B8D9C8D0097C1F694
:1026C0001A8A198A22C069897A892F8D38A1898945
:1026D0009A89A901481B590BCA012DA13EA1880F57
:1026E000991FF901E80FF91F4081518129A13AA1F1
:1026F000CB01880F991FF901E80FF91F518340831F
:1027000089899A8901969A8B898B2F8D38A189891D
:102710009A8982179307B8F28F8D98A129A13AA1BF
:10272000880F991FF901E80FF91F118210828D8D12
:102730009E8D0196988B8F8780E090E0A0E8BFE3A4
:102740008B879C87AD87BE878D8D9E8D5FEF8F3F7A
:10275000950709F4BEC08F8D98A129A13AA1880FD1
:10276000991FF901E80FF91F8EE290E091838083B1
:1027700015C06B857C858D859E8520E030E040E22C
:1027800051E40E941F02DC01CB018B879C87AD873F
:10279000BE878F8598890197988B8F878F859889B9
:1027A000009739F76D897E898F89988D2B853C85B7
:1027B0004D855E850E941F02DC01CB018D8B9E8BB7
:1027C000AF8BB88F1C8A1B8A6D897E898F89988D03
:1027D0000E940704DC01CB0198878F8324C08B897A
:1027E0009C8901969C8B8B8BEB89FC898F819885CA
:1027F0002AE030E0B9010E94C81EC096AC012BA1AE
:102800003CA1CF01880F991FF901E80FF91F5183EF
:1028100040838F8198852AE030E0B9010E94C81E6C
:10282000CB0198878F838F8198850097C1F61C8292
:102830001B821A8219828F8D98A101969E838D83A7
:102840002AC06D817E818D8D9E8D9C012F5F3F4FB3
:102850008B819C81A901481B590BCA012BA13CA16A
:10286000880F991FF901E80FF91F4081518129A1B3
:102870003AA1CB01880F991FF901E80FF91F518385
:1028800040838B819C8101969C838B838D819E816B
:1028900001969E838D832F8D38A18D8D9E8D820F05
:1028A000931F9C012F5F3F4F8D819E81821793075D
:1028B00044F22F8D38A18D8D9E8D820F931F01962E
:1028C00029A13AA1880F991FF901E80FF91F118278
:1028D00010821A86198615C089859A8529A13AA180
:1028E000880F991FF901E80FF91F808191812BA5AD
:1028F0003CA5B9010E94EA1089859A8501969A87BC
:10290000898789859A8529A13AA1880F991FF9019C
:10291000E80FF91F808191810097F1F68DA59EA5A2
:102920000FB6F8949EBF0FBE8DBF2DA93EA90FB65E
:10293000F8943EBF0FBE2DBFE6960FB6F894DEBFEB
:102940000FBECDBFCF91DF910895DF93CF9300D01D
:1029500000D00F92CDB7DEB79B838A837D836C83D3
:10296000198211C08981282F30E08A819B81FC0166
:10297000E20FF31F80812C813D81B9010E94EA1092
:1029800089818F5F89838981282F30E08A819B81AB
:10299000FC01E20FF31F8081882321F70F900F9035
:1029A0000F900F900F90CF91DF910895DF93CF9309
:1029B000CDB7DEB76E970FB6F894DEBF0FBECDBFB2
:1029C0009E8F8D8FED8DFE8D8081482F50E0ED8D97
:1029D000FE8D8381282F30E0CA01B90140E050E02C
:1029E0000E94E20BED8DFE8D8181482F50E0ED8D30
:1029F000FE8D8481282F30E0CA01B90140E050E00B
:102A00000E94E20BED8DFE8D8681882F90E061E0C3
:102A100070E00E94D20DED8DFE8D8281482F50E036
:102A2000ED8DFE8D8581282F30E0CA01B90141E08E
:102A300050E00E94E20B80E090E0A0E8BFE3898FC5
:102A40009A8FAB8FBC8F698D7A8D8B8D9C8D20E09A
:102A500030E04AEF54E40E941F02DC01CB018D8B71
:102A60009E8BAF8BB88F6D897E898F89988D20E082
:102A700030E040E85FE30E94790388232CF481E092
:102A800090E09C8B8B8B3FC06D897E898F89988D60
:102A900020E03FEF4FE757E40E94190318164CF56A
:102AA000698D7A8D8B8D9C8D20E030E040E251E481
:102AB0000E941F02DC01CB01BC01CD010E94490034
:102AC000DC01CB019C8B8B8B0FC088EC90E09A8B48
:102AD000898B89899A890197F1F79A8B898B8B89E0
:102AE0009C8901979C8B8B8B8B899C89009769F7BC
:102AF00014C06D897E898F89988D0E944900DC0100
:102B0000CB019C8B8B8B8B899C89988B8F878F8536
:102B100098890197F1F7988B8F87ED8DFE8D8281D3
:102B2000482F50E0ED8DFE8D8581282F30E0CA01C1
:102B3000B90140E050E00E94E20B80E090E0A0E8A4
:102B4000BFE38B879C87AD87BE876B857C858D8532
:102B50009E8520E030E04AEF54E40E941F02DC0131
:102B6000CB018F839887A987BA876F8178858985FC
:102B70009A8520E030E040E85FE30E9479038823F3
:102B80002CF481E090E09E838D833FC06F81788537
:102B900089859A8520E03FEF4FE757E40E941903AB
:102BA00018164CF56B857C858D859E8520E030E080
:102BB00040E251E40E941F02DC01CB01BC01CD01C7
:102BC0000E944900DC01CB019E838D830FC088ECFD
:102BD00090E09C838B838B819C810197F1F79C8390
:102BE0008B838D819E8101979E838D838D819E81B4
:102BF000009769F714C06F81788589859A850E944E
:102C00004900DC01CB019E838D838D819E819A8357
:102C1000898389819A810197F1F79A8389836E96D6
:102C20000FB6F894DEBF0FBECDBFCF91DF910895F0
:102C3000DF93CF93CDB7DEB7EA970FB6F894DEBF38
:102C40000FBECDBF9AAF89AFE9ADFAAD8081482FF5
:102C500050E0E9ADFAAD8381282F30E0CA01B90117
:102C600041E050E00E94CF0AE9ADFAAD8181482FE2
:102C700050E0E9ADFAAD8481282F30E0CA01B901F6
:102C800041E050E00E94CF0AE9ADFAAD8281482FC1
:102C900050E0E9ADFAAD8581282F30E0CA01B901D5
:102CA00041E050E00E94CF0AE9ADFAAD8681882F5D
:102CB00090E06FEF70E00E94890D80E090E0A0E26C
:102CC000B2E48DAB9EABAFABB8AF6DA97EA98FA9B7
:102CD00098AD20E030E04AEF54E40E941F02DC018E
:102CE000CB0189AB9AABABABBCAB69A97AA98BA979
:102CF0009CA920E030E040E85FE30E94790388234C
:102D00002CF481E090E098AB8FA73FC069A97AA925
:102D10008BA99CA920E03FEF4FE757E40E941903DD
:102D200018164CF56DA97EA98FA998AD20E030E06A
:102D300040E251E40E941F02DC01CB01BC01CD0145
:102D40000E944900DC01CB0198AB8FA70FC088EC33
:102D500090E09EA78DA78DA59EA50197F1F79EA750
:102D60008DA78FA598A9019798AB8FA78FA598A934
:102D7000009769F714C069A97AA98BA99CA90E9438
:102D80004900DC01CB0198AB8FA78FA598A99CA720
:102D90008BA78BA59CA50197F1F79CA78BA729ADC5
:102DA0003AAD88E3B9010E947D0F80E090E0A0E891
:102DB000BFE38FA398A7A9A7BAA76FA178A589A5F4
:102DC0009AA520E030E04AEF54E40E941F02DC01A3
:102DD000CB018BA39CA3ADA3BEA36BA17CA18DA1B2
:102DE0009EA120E030E040E85FE30E947903882361
:102DF0002CF481E090E09AA389A33FC06BA17CA151
:102E00008DA19EA120E03FEF4FE757E40E941903F8
:102E100018164CF56FA178A589A59AA520E030E099
:102E200040E251E40E941F02DC01CB01BC01CD0154
:102E30000E944900DC01CB019AA389A30FC088EC52
:102E400090E098A38F8F8F8D98A10197F1F798A3A9
:102E50008F8F89A19AA101979AA389A389A19AA189
:102E6000009769F714C06BA17CA18DA19EA10E945F
:102E70004900DC01CB019AA389A389A19AA19E8F65
:102E80008D8F8D8D9E8D0197F1F79E8F8D8F29AD42
:102E90003AAD8CE0B9010E947D0F80E090E0A0E89F
:102EA000BFE3898F9A8FAB8FBC8F698D7A8D8B8DA5
:102EB0009C8D20E030E04AEF54E40E941F02DC01C8
:102EC000CB018D8B9E8BAF8BB88F6D897E898F895F
:102ED000988D20E030E040E85FE30E94790388238A
:102EE0002CF481E090E09C8B8B8B3FC06D897E89B8
:102EF0008F89988D20E03FEF4FE757E40E94190338
:102F000018164CF5698D7A8D8B8D9C8D20E030E004
:102F100040E251E40E941F02DC01CB01BC01CD0163
:102F20000E944900DC01CB019C8B8B8B0FC088EC8D
:102F300090E09A8B898B89899A890197F1F79A8B0E
:102F4000898B8B899C8901979C8B8B8B8B899C8926
:102F5000009769F714C06D897E898F89988D0E94CA
:102F60004900DC01CB019C8B8B8B8B899C89988BD6
:102F70008F878F8598890197F1F7988B8F8729AD77
:102F80003AAD81E0B9010E947D0F80E090E0A0E0C1
:102F9000B0E48B879C87AD87BE876B857C858D85EC
:102FA0009E8520E030E04AEF54E40E941F02DC01DD
:102FB000CB018F839887A987BA876F8178858985A8
:102FC0009A8520E030E040E85FE30E94790388239F
:102FD0002CF481E090E09E838D833FC06F817885E3
:102FE00089859A8520E03FEF4FE757E40E94190357
:102FF00018164CF56B857C858D859E8520E030E02C
:1030000040E251E40E941F02DC01CB01BC01CD0172
:103010000E944900DC01CB019E838D830FC088ECA8
:1030200090E09C838B838B819C810197F1F79C833B
:103030008B838D819E8101979E838D838D819E815F
:10304000009769F714C06F81788589859A850E94F9
:103050004900DC01CB019E838D838D819E819A8303
:10306000898389819A810197F1F79A838983EA9606
:103070000FB6F894DEBF0FBECDBFCF91DF9108959C
:10308000DF93CF9300D0CDB7DEB71A821BC08A8101
:10309000882F90E0FC01E858FE4F908182E0692F74
:1030A00040E00E94CF0A8A81882F90E0FC01E85816
:1030B000FE4F908182E0692F41E00E94E20B8A81FD
:1030C0008F5F8A838A81843010F384E089831BC0F8
:1030D0008981882F90E0FC01E858FE4F908182E0C2
:1030E000692F41E00E94CF0A8981882F90E0FC017E
:1030F000E858FE4F908182E0692F41E00E94E20B88
:1031000089818F5F89838981883010F30F900F90B8
:10311000CF91DF910895DF93CF93CDB7DEB7659759
:103120000FB6F894DEBF0FBECDBF9D8B8C8B1A8A75
:10313000198A188A1F8684E08A8BE8C08A89882FBA
:1031400090E0FC01E858FE4F908182E0692F40E05A
:103150000E94E20B198AC4C08989882F90E0FC0183
:10316000E858FE4F90819E012D5E3F4F82E0692F0F
:10317000A9010E94F50C8B89882309F0AEC080E07C
:1031800090E0A0E7B1E48B879C87AD87BE876B8515
:103190007C858D859E8520E030E04AEF54E40E94D6
:1031A0001F02DC01CB018F839887A987BA876F81C3
:1031B000788589859A8520E030E040E85FE30E94C9
:1031C000790388232CF481E090E09E838D833FC0B7
:1031D0006F81788589859A8520E03FEF4FE757E436
:1031E0000E94190318164CF56B857C858D859E858C
:1031F00020E030E040E251E40E941F02DC01CB01FC
:10320000BC01CD010E944900DC01CB019E838D836E
:103210000FC088EC90E09C838B838B819C8101970D
:10322000F1F79C838B838D819E8101979E838D8393
:103230008D819E81009769F714C06F81788589859B
:103240009A850E944900DC01CB019E838D838D818C
:103250009E819A83898389819A810197F1F79A8364
:1032600089838989882F90E0FC01E858FE4F90817E
:103270009E012D5E3F4F82E0692FA9010E94F50C4F
:103280008B89882351F58989482F50E08A89882FB6
:1032900090E09C0124503040CA01880F991F880F8C
:1032A000991F820F931FFC01E859FE4F8081888B84
:1032B0000FC08989882F90E0FC01E858FE4F90816B
:1032C0009E012D5E3F4F82E0692FA9010E94F50CFF
:1032D0008B89882371F381E08F8789898F5F898B40
:1032E0008989843020F48F85882309F435CF8A8931
:1032F000882F90E0FC01E858FE4F908182E0692F12
:1033000041E00E94E20B8A898F5F8A8B8A8988302C
:1033100020F48F85882309F411CFEC89FD898889F1
:10332000808365960FB6F894DEBF0FBECDBFCF91F8
:10333000DF910895DF93CF93CDB7DEB728970FB60F
:10334000F894DEBF0FBECDBF89837B836A83EA8199
:10335000FB8181816FEF0E94890DEA81FB81808171
:10336000882309F098C08981282F30E038872F837F
:103370008F8198858430910509F45FC02F8138854D
:1033800025303105DCF48F8198858130910509F471
:103390003FC02F813885223031052CF48F819885EC
:1033A000009779F174C02F81388522303105B9F149
:1033B0008F81988583309105C9F169C02F81388547
:1033C0002730310509F44EC08F81988588309105EA
:1033D0005CF42F81388525303105B1F18F819885D6
:1033E00086309105C1F153C02F81388528303105D1
:1033F00009F43FC08F8198858930910509F440C058
:1034000046C0EA81FB8181816FE30E94D20D41C0F9
:10341000EA81FB81818166E00E94D20D3AC0EA8197
:10342000FB8181816BE50E94D20D33C0EA81FB8173
:1034300081816FE40E94D20D2CC0EA81FB818181E1
:1034400066E60E94D20D25C0EA81FB8181816DE68E
:103450000E94D20D1EC0EA81FB8181816DE70E942E
:10346000D20D17C0EA81FB81818167E00E94D20DF5
:1034700010C0EA81FB8181816FE70E94D20D09C0F3
:10348000EA81FB8181816FE60E94D20D02C01E821B
:10349000A2C01E82A0C0EA81FB818081813009F038
:1034A00098C08981282F30E03D832C838C819D81B9
:1034B0008430910509F45FC02C813D8125303105B0
:1034C000DCF48C819D818130910509F43FC02C8111
:1034D0003D81223031052CF48C819D81009779F15A
:1034E00074C02C813D8122303105B9F18C819D81E0
:1034F00083309105C9F169C02C813D8127303105A8
:1035000009F44EC08C819D81883091055CF42C813A
:103510003D8125303105B1F18C819D818630910549
:10352000C1F153C02C813D812830310509F43FC0E1
:103530008C819D818930910509F440C046C0EA81A3
:10354000FB81818160EC0E94D20D41C0EA81FB8148
:10355000818169EF0E94D20D3AC0EA81FB818181AD
:1035600064EA0E94D20D33C0EA81FB81818160EB65
:103570000E94D20D2CC0EA81FB81818169E90E9401
:10358000D20D25C0EA81FB81818162E90E94D20DC2
:103590001EC0EA81FB81818162E80E94D20D17C0C2
:1035A000EA81FB81818168EF0E94D20D10C0EA811F
:1035B000FB81818160E00E94D20D09C0EA81FB811C
:1035C000818160E90E94D20D02C01E8204C01E8269
:1035D00002C091E09E838E8128960FB6F894DEBFDC
:1035E0000FBECDBFCF91DF910895DF93CF93CDB7BD
:1035F000DEB7A9970FB6F894DEBF0FBECDBF9AA372
:1036000089A36BA34CA3E9A1FAA181816FEF0E946A
:10361000890DE9A1FAA18081882309F01DC18BA140
:10362000882F90E098A38F8F0CC18F8D98A19FA3B6
:103630008EA38EA19FA18430910509F45FC08EA155
:103640009FA185309105DCF48EA19FA18130910569
:1036500009F43FC08EA19FA1823091052CF48EA168
:103660009FA1009779F174C08EA19FA1823091052E
:10367000B9F18EA19FA183309105C9F169C08EA1D6
:103680009FA18730910509F44EC08EA19FA188307B
:1036900091055CF48EA19FA185309105B1F18EA1B9
:1036A0009FA186309105C1F153C08EA19FA18830A2
:1036B000910509F43FC08EA19FA18930910509F4BD
:1036C00040C046C0E9A1FAA181816FE30E94D20DFA
:1036D00041C0E9A1FAA1818166E00E94D20D3AC001
:1036E000E9A1FAA181816BE50E94D20D33C0E9A165
:1036F000FAA181816FE40E94D20D2CC0E9A1FAA148
:10370000818166E60E94D20D25C0E9A1FAA18181DE
:103710006DE60E94D20D1EC0E9A1FAA181816DE77C
:103720000E94D20D17C0E9A1FAA1818167E00E9431
:10373000D20D10C0E9A1FAA181816FE70E94D20DDC
:1037400009C0E9A1FAA181816FE60E94D20D02C0F1
:103750001DA2A7C180E090E0AAEFB3E4898F9A8F01
:10376000AB8FBC8F698D7A8D8B8D9C8D20E030E086
:103770004AEF54E40E941F02DC01CB018D8B9E8B2B
:10378000AF8BB88F6D897E898F89988D20E030E06E
:1037900040E85FE30E94790388232CF481E090E005
:1037A0009C8B8B8B3FC06D897E898F89988D20E0A3
:1037B0003FEF4FE757E40E94190318164CF5698D47
:1037C0007A8D8B8D9C8D20E030E040E251E40E94A8
:1037D0001F02DC01CB01BC01CD010E944900DC01CC
:1037E000CB019C8B8B8B0FC088EC90E09A8B898BE4
:1037F00089899A890197F1F79A8B898B8B899C89A2
:1038000001979C8B8B8B8B899C89009769F714C0DF
:103810006D897E898F89988D0E944900DC01CB01DA
:103820009C8B8B8B8B899C89988B8F878F859889B4
:103830000197F1F7988B8F878F8D98A1019698A3A8
:103840008F8F8CA1282F30E08F8D98A128173907F2
:103850000CF0EBCE1DA225C1E9A1FAA18081813037
:1038600009F01DC18BA1882F90E09E8F8D8F0CC118
:103870008D8D9E8D99A788A788A599A584309105DF
:1038800009F45FC088A599A585309105DCF488A569
:1038900099A58130910509F43FC088A599A582308A
:1038A00091052CF488A599A5009779F174C088A595
:1038B00099A582309105B9F188A599A58330910524
:1038C000C9F169C088A599A58730910509F44EC052
:1038D00088A599A5883091055CF488A599A58530BF
:1038E0009105B1F188A599A586309105C1F153C024
:1038F00088A599A58830910509F43FC088A599A5A8
:103900008930910509F440C046C0E9A1FAA181813E
:1039100060EC0E94D20D41C0E9A1FAA1818169EF5A
:103920000E94D20D3AC0E9A1FAA1818164EA0E9405
:10393000D20D33C0E9A1FAA1818160EB0E94D20DC2
:103940002CC0E9A1FAA1818169E90E94D20D25C0AC
:10395000E9A1FAA1818162E90E94D20D1EC0E9A10C
:10396000FAA1818162E80E94D20D17C0E9A1FAA1F3
:10397000818168EF0E94D20D10C0E9A1FAA1818176
:1039800060E00E94D20D09C0E9A1FAA1818160E93D
:103990000E94D20D02C01DA284C080E090E0AAEF78
:1039A000B3E48B879C87AD87BE876B857C858D85CF
:1039B0009E8520E030E04AEF54E40E941F02DC01C3
:1039C000CB018F839887A987BA876F81788589858E
:1039D0009A8520E030E040E85FE30E947903882385
:1039E0002CF481E090E09E838D833FC06F817885C9
:1039F00089859A8520E03FEF4FE757E40E9419033D
:103A000018164CF56B857C858D859E8520E030E011
:103A100040E251E40E941F02DC01CB01BC01CD0158
:103A20000E944900DC01CB019E838D830FC088EC8E
:103A300090E09C838B838B819C810197F1F79C8321
:103A40008B838D819E8101979E838D838D819E8145
:103A5000009769F714C06F81788589859A850E94DF
:103A60004900DC01CB019E838D838D819E819A83E9
:103A7000898389819A810197F1F79A8389838D8D52
:103A80009E8D01969E8F8D8F8CA1282F30E08D8D7D
:103A90009E8D281739070CF0EBCE1DA202C091E0D5
:103AA0009DA38DA1A9960FB6F894DEBF0FBECDBF22
:103AB000CF91DF910895DF93CF93CDB7DEB780919B
:103AC000AA019091AB0101969093AB018093AA015A
:103AD0008091AA019091AB012FE08234920799F472
:103AE00080918E01813019F40E94C71D08C0809119
:103AF000A801813021F40E94861D0E94C71D1092EA
:103B0000AB011092AA01CF91DF910895DF93CF937B
:103B100000D0CDB7DEB78091A901813001F51A82BE
:103B2000198216C089819A818530910561F0898159
:103B30009A818230910539F089819A81FC01E85699
:103B4000FE4F80E3808389819A8101969A838983DD
:103B500089819A81883091052CF31092A90187E818
:103B600091E00E94D61480E891E00E94D61488E982
:103B700091E027E831E0B9010E94A51488E991E0BD
:103B80000E94EA1D0F900F90CF91DF910895DF936F
:103B9000CF93CDB7DEB78091A801813029F48FE8AB
:103BA00091E00E94EA1D13C080E891E00E94D614C3
:103BB00087E891E00E94D6148FE891E020E831E098
:103BC000B9010E94A5148FE891E00E94EA1DCF91EF
:103BD000DF910895DF93CF9300D00F92CDB7DEB77A
:103BE0009B838A8319828A819B81FC01379680811D
:103BF000893361F08A819B81DC0117968A819B81E0
:103C0000FC01379680818F5F8C930FC08A819B81E6
:103C1000FC0137968081893341F48A819B81FC01C4
:103C2000379680E3808381E089838981813061F4E4
:103C30008A819B81DC0116968A819B81FC013696E4
:103C400080818F5F8C9319828A819B81FC013696DB
:103C500080818633F1F48A819B81FC0137968081D3
:103C60008033B9F48A819B81DC0114968A819B811F
:103C7000FC01349680818F5F8C938A819B81FC014B
:103C8000379680E380838A819B81FC01369680E3AE
:103C900080838A819B81FC0134968081893381F401
:103CA0008A819B81FC01349610828A819B81DC0190
:103CB00013968A819B81FC01339680818F5F8C9360
:103CC0008A819B81FC0133968081863391F48A81BD
:103CD0009B81FC0134968081803359F48A819B81D9
:103CE000DC0111968A819B81FC01319680818F5F76
:103CF0008C938A819B81FC0131968081893361F4A8
:103D00008A819B81FC0131961082EA81FB8180814E
:103D10008F5FEA81FB8180830F900F900F90CF918E
:103D2000DF910895DF93CF9300D0CDB7DEB783E066
:103D300062E041E00E94CF0A83E062E041E00E943D
:103D4000E20B86EA91E00E94500680E891E00E9432
:103D5000181687E891E00E9418160E9440188BE51B
:103D60009DE10E943208CE0102960E948B188A8142
:103D70008823A9F380918E0189838091A801809383
:103D80008E0189818093A80181E08093A901E7CF0A
:103D900097FB092E07260AD077FD04D00CD006D059
:103DA00000201AF4709561957F4F0895F6F790956D
:103DB00081959F4F0895AA1BBB1B51E107C0AA1F05
:103DC000BB1FA617B70710F0A61BB70B881F991FBC
:103DD0005A95A9F780959095BC01CD0108952F9231
:103DE0003F924F925F926F927F928F929F92AF928B
:103DF000BF92CF92DF92EF92FF920F931F93CF93D8
:103E0000DF93CDB7DEB7CA1BDB0B0FB6F894DEBF6E
:103E10000FBECDBF09942A88398848885F846E8494
:103E20007D848C849B84AA84B984C884DF80EE80DE
:103E3000FD800C811B81AA81B981CE0FD11D0FB6E7
:103E4000F894DEBF0FBECDBFED010895F894FFCF0B
:103E50000000000000000000000102020303030351
:103E6000040404040404040405050505050505050A
:103E700005050505050505050606060606060606EA
:103E800006060606060606060606060606060606D2
:103E900006060606060606060707070707070707BA
:103EA00007070707070707070707070707070707A2
:103EB0000707070707070707070707070707070792
:103EC0000707070707070707070707070707070782
:103ED000070707070707070708080808080808086A
:103EE0000808080808080808080808080808080852
:103EF0000808080808080808080808080808080842
:103F00000808080808080808080808080808080831
:103F10000808080808080808080808080808080821
:103F20000808080808080808080808080808080811
:103F30000808080808080808080808080808080801
:103F400008080808080808080808080808080808F1
:103F500008080808080808083734312E3835323088
:103F60003936333D2F2A2D2B0001020304050607A5
:103F700001010102010000010101030405030130F8
:103F8000373A31323A33340030303A30303A303028
:023F900000002F
:00000001FF
