:100000000C942A000C94560A0C9447000C94470058
:100010000C9447000C9447000C9447000C94470044
:100020000C9447000C9447000C9410080C9443085F
:100030000C9447000C9447000C9447000C94470024
:100040000C9447000C9447000C9447000C94470014
:100050000C94470011241FBECFE5D8E0DEBFCDBF12
:1000600010E0A0E6B0E0E6E4F8E302C005900D92EF
:10007000AA38B107D9F710E0AAE8B0E001C01D9294
:10008000AE38B107E1F70E949C1B0C94211C0C9424
:100090000000EF92FF920F931F937B018C0120E0F1
:1000A00030E040E05FE40E94490388238CF0C801FF
:1000B000B70120E030E040E05FE40E94C1010E940F
:1000C000A9039B01AC01205030404040504806C07D
:1000D000C801B7010E94A9039B01AC01B901CA0183
:1000E0001F910F91FF90EF900895A0E0B0E0EBE733
:1000F000F0E00C94EA1BDC012B01FA019C91923098
:1001000008F439C1EB018881823008F433C194309E
:1001100069F4843009F02FC111969C91119789815F
:10012000981709F428C1A0E6B0E025C1843009F48D
:1001300021C18230A9F4923009F01DC19A01AD01AC
:1001400088E0EA010990AE01E90109929E0181501F
:10015000C1F7E201898111969C918923818308C1AD
:10016000923009F407C112962D903C901397EB0141
:100170008A819B811496AD90BD90CD90DC901797AD
:10018000EC80FD800E811F819101281B390BB90184
:1001900037FF04C066277727621B730B6032710537
:1001A0000CF061C0121613066CF537014801062EDB
:1001B00004C096948794779467940A94D2F721E0C8
:1001C00030E040E050E004C0220F331F441F551FB1
:1001D0006A95D2F721503040404050402E213F21B7
:1001E00040235123211531054105510521F021E01E
:1001F00030E040E050E079018A01E628F72808293C
:1002000019293CC0232BD1F1260E371E350146019A
:10021000062E04C096948794779467940A94D2F734
:1002200021E030E040E050E004C0220F331F441FC3
:10023000551F6A95D2F721503040404050402A2146
:100240003B214C215D21211531054105510521F04E
:1002500021E030E040E050E059016A01A628B728CB
:10026000C828D9280BC0821593052CF01C01AA249C
:10027000BB24650103C0EE24FF24870111969C91E5
:10028000D20111968C91981709F445C0992339F041
:10029000A80197012A193B094C095D0906C0A6016E
:1002A00095012E193F09400B510B57FD08C01182D3
:1002B0003382228224833583468357831DC081E0A5
:1002C00081833382228288279927DC01821B930B4A
:1002D000A40BB50B84839583A683B7830DC0220F2F
:1002E000331F441F551F24833583468357838281E0
:1002F000938101979383828324813581468157813D
:10030000DA01C9010197A109B1098F5F9F4FAF4F72
:10031000BF4328F30BC0918333822282EA0CFB1C7B
:100320000C1D1D1DE482F5820683178383E0808304
:10033000248135814681578157FF1AC0C901AA27F8
:1003400097FDA095BA2F81709070A070B0705695EF
:10035000479537952795822B932BA42BB52B848318
:100360009583A683B7838281938101969383828349
:10037000DF0101C0D201CD01CDB7DEB7E2E10C94BF
:10038000061CA0E2B0E0E7ECF1E00C94F61B6983F8
:100390007A838B839C832D833E834F835887E9E048
:1003A000EE2EF12CEC0EFD1ECE010196B7010E943F
:1003B000D2048E010F5E1F4FCE010596B8010E9438
:1003C000D2048A8991E089278A8BC701B801AE01DE
:1003D000475E5F4F0E9475000E94FD03A096E6E015
:1003E0000C94121CA0E2B0E0E8EFF1E00C94F61BD4
:1003F00069837A838B839C832D833E834F835887C5
:10040000F9E0EF2EF12CEC0EFD1ECE010196B701A6
:100410000E94D2048E010F5E1F4FCE010596B801D7
:100420000E94D204C701B801AE01475E5F4F0E942F
:1004300075000E94FD03A096E6E00C94121CA0E259
:10044000B0E0E5E2F2E00C94EA1B69837A838B83E7
:100450009C832D833E834F835887CE010196BE0136
:10046000675F7F4F0E94D204CE010596BE016F5E8A
:100470007F4F0E94D2049985923088F0898982301A
:10048000C8F0943019F4823051F404C0843029F457
:10049000923081F480E690E0C6C0923049F420E0CA
:1004A0009A858A89981321E02A87CE010996BBC0D4
:1004B000823049F420E09A858A89981321E02A8BBA
:1004C000CE014196B0C02D843E844F8458886D88FB
:1004D0007E888F88988CEE24FF248701AA24BB2471
:1004E000650140E050E060E070E0E0E0F0E0C10174
:1004F00081709070892BE9F0E60CF71C081D191D1E
:100500009A01AB012A0D3B1D4C1D5D1D80E090E062
:10051000A0E0B0E0E614F7040805190520F481E036
:1005200090E0A0E0B0E0BA01A901480F591F6A1F8E
:100530007B1FAA0CBB1CCC1CDD1C97FE08C081E0F5
:1005400090E0A0E0B0E0A82AB92ACA2ADB2A3196B6
:10055000E032F10549F0660C771C881C991C569412
:10056000479437942794C3CFFA85EA892B893C892D
:100570008B859C85280F391F2E5F3F4F17C0CA01FE
:1005800081709070892B61F016950795F794E79428
:1005900080E090E0A0E0B0E8E82AF92A0A2B1B2BC3
:1005A00076956795579547952F5F3F4F77FDE7CF36
:1005B0000CC0440F551F661F771F17FD4160EE0CDE
:1005C000FF1C001F111F21503040403090E05907A0
:1005D00090E0690790E4790760F32B8F3C8FDB0193
:1005E000CA018F779070A070B07080349105A1051A
:1005F000B10561F447FD0AC0E114F10401051105DC
:1006000029F0405C5F4F6F4F7F4F40781A8EFE1786
:1006100011F081E08A8F4D8F5E8F6F8F78A383E01A
:10062000898FCE0149960E94FD03A096E2E10C94C9
:10063000061CA8E1B0E0EFE1F3E00C94F61B69833F
:100640007A838B839C832D833E834F83588789E0F5
:10065000E82EF12CEC0EFD1ECE010196B7010E9492
:10066000D2048E010F5E1F4FCE010596B8010E9485
:10067000D2048985823040F08989823028F0C70110
:10068000B8010E944A0501C08FEF6896E6E00C941D
:10069000121CA8E1B0E0EFE4F3E00C94F61B6983D0
:1006A0007A838B839C832D833E834F83588789E095
:1006B000E82EF12CEC0EFD1ECE010196B7010E9432
:1006C000D2048E010F5E1F4FCE010596B8010E9425
:1006D000D2048985823040F08989823028F0C701B0
:1006E000B8010E944A0501C08FEF6896E6E00C94BD
:1006F000121CA8E1B0E0EFE7F3E00C94F61B69836D
:100700007A838B839C832D833E834F83588789E034
:10071000E82EF12CEC0EFD1ECE010196B7010E94D1
:10072000D2048E010F5E1F4FCE010596B8010E94C4
:10073000D2048985823040F08989823028F0C7014F
:10074000B8010E944A0501C081E06896E6E00C9479
:10075000121CACE0B0E0EFEAF3E00C94FA1B698302
:100760007A838B839C83CE010196BE016B5F7F4FA2
:100770000E94D2048D81823061F1823050F1843048
:1007800021F48E81882351F12EC02F81388537FDC9
:1007900020C06E812F3131051CF06623F9F023C093
:1007A0008EE190E0821B930B29853A854B855C8511
:1007B00004C056954795379527958A95D2F76623B5
:1007C000B1F050954095309521953F4F4F4F5F4F79
:1007D0000EC020E030E040E050E009C02FEF3FEFD6
:1007E0004FEF5FE704C020E030E040E050E8B9019F
:1007F000CA012C96E2E00C94161CDF92EF92FF9255
:100800000F931F93FC01E480F58006811781D1804E
:100810008081823048F480E090E0A0E1B0E0E82AF6
:10082000F92A0A2B1B2BA5C0843009F49FC0823003
:1008300021F4EE24FF24870105C0E114F104010531
:10084000110519F4E0E0F0E096C0628173819FEF3A
:10085000623879070CF05BC022E83FEF261B370BAC
:100860002A3131052CF020E030E040E050E02AC091
:10087000B801A701022E04C0769567955795479554
:100880000A94D2F781E090E0A0E0B0E004C0880FC5
:10089000991FAA1FBB1F2A95D2F70197A109B10979
:1008A0008E219F21A023B1230097A105B10521F03E
:1008B00081E090E0A0E0B0E09A01AB01282B392B59
:1008C0004A2B5B2BDA01C9018F779070A070B07052
:1008D00080349105A105B10539F427FF09C0205CDA
:1008E0003F4F4F4F5F4F04C0215C3F4F4F4F5F4F13
:1008F000E0E0F0E02030A0E03A07A0E04A07A0E402
:100900005A0710F0E1E0F0E079018A0127C0603871
:10091000710564F5FB01E158FF4FD801C7018F77DE
:100920009070A070B07080349105A105B10539F4C4
:10093000E7FE0DC080E490E0A0E0B0E004C08FE3EB
:1009400090E0A0E0B0E0E80EF91E0A1F1B1F17FFA1
:1009500005C016950795F794E794319687E01695AC
:100960000795F794E7948A95D1F705C0EE24FF2404
:100970008701EFEFF0E06E2F679566276795902F60
:100980009F77D794DD24D7948E2F8695492F462BB9
:10099000582F5D29B701CA011F910F91FF90EF9069
:1009A000DF900895FC01DB01408151812281622F9B
:1009B0006F7770E0221F2227221F9381892F880FD3
:1009C000822B282F30E0991F9927991F11969C930D
:1009D000119721153105A9F54115510561057105DD
:1009E00011F482E037C082E89FEF13969C938E93B8
:1009F00012979A01AB0167E0220F331F441F551F66
:100A00006A95D1F783E08C930DC0220F331F441FEA
:100A1000551F12968D919C911397019713969C9355
:100A20008E931297203080E0380780E0480780E4FA
:100A3000580758F314962D933D934D935C93179755
:100A400008952F3F310579F4411551056105710570
:100A500019F484E08C93089564FF03C081E08C93C3
:100A600012C01C9210C02F57304013963C932E9307
:100A7000129783E08C9387E0440F551F661F771F02
:100A80008A95D1F7706414964D935D936D937C9322
:100A9000179708951F93DC01FB019C91923008F495
:100AA00047C08081823008F443C0943051F41196DD
:100AB0001C91843099F58181682F70E0611B710968
:100AC0003FC0843021F0923031F48230B9F181811D
:100AD000882389F12DC011961C9111978230F1F075
:100AE00081811817D9F412962D913C911397828128
:100AF00093818217930794F028173907BCF0149656
:100B00008D919D910D90BC91A02D248135814681C0
:100B10005781281739074A075B0718F4112341F05A
:100B20000AC082179307A407B50740F4112319F0F0
:100B300061E070E005C06FEF7FEF02C060E070E041
:100B4000CB011F910895DF93CF930F92CDB7DEB7FE
:100B500019828981826089838981806889838981FA
:100B600084608983E0E4F0E080818983E9E2F0E059
:100B700083E38083AAE2B0E0EAE2F0E08081806172
:100B80008C93AAE2B0E0EAE2F0E0808188608C9386
:100B90000F90CF91DF910895DF93CF930F92CDB750
:100BA000DEB7EBE2F0E08081882334F0ECE2F0E0A5
:100BB00080818983898100C00F90CF91DF91089552
:100BC000DF93CF9300D000D0CDB7DEB79A8389836F
:100BD000E981FA818081882321F5A3E5B0E0E3E58E
:100BE000F0E08081877F8C93A3E5B0E0E3E5F0E05F
:100BF00080818F7B8C93A9E5B0E0E9E5F0E080810E
:100C000081608C93AFE5B0E0EFE5F0E08081806833
:100C10008C93A8E5B0E0E8E5F0E0808181608C93FA
:100C200033C0E981FA818081813071F5A3E5B0E0BC
:100C3000E3E5F0E0808188608C93A3E5B0E0E3E534
:100C4000F0E080818F7B8C93A3E5B0E0E3E5F0E0FA
:100C5000808180628C93A3E5B0E0E3E5F0E08081E1
:100C600080618C93A9E5B0E0E9E5F0E080818260E5
:100C70008C93AFE5B0E0EFE5F0E0808180688C9385
:100C8000ECE5F0E089EF8083E981FA818181282F0A
:100C900030E03C832B838B819C818130910561F115
:100CA0002B813C81223031052CF48B819C81009773
:100CB00069F063C02B813C812230310599F18B8131
:100CC0009C818330910509F443C057C0A3E5B0E08F
:100CD000E3E5F0E080818E7F8C93A3E5B0E0E3E56F
:100CE000F0E0808182608C93A3E5B0E0E3E5F0E082
:100CF00080818B7F8C9341C0A3E5B0E0E3E5F0E019
:100D0000808181608C93A3E5B0E0E3E5F0E0808131
:100D100082608C93A3E5B0E0E3E5F0E080818B7F17
:100D20008C932BC0A3E5B0E0E3E5F0E080818E7FFB
:100D30008C93A3E5B0E0E3E5F0E080818D7F8C93B8
:100D4000A3E5B0E0E3E5F0E0808184608C9315C01A
:100D5000A3E5B0E0E3E5F0E0808181608C93A3E55A
:100D6000B0E0E3E5F0E080818D7F8C93A3E5B0E017
:100D7000E3E5F0E0808184608C930F900F900F90FA
:100D80000F90CF91DF910895DF93CF9300D000D0E3
:100D9000CDB7DEB79A838983E981FA818081882380
:100DA00009F064C0A3E5B0E0E3E5F0E08081877F6F
:100DB0008C93A3E5B0E0E3E5F0E0808180648C9360
:100DC000A3E5B0E0E3E5F0E0808180628C93A3E5E9
:100DD000B0E0E3E5F0E0808180618C93A3E5B0E0D2
:100DE000E3E5F0E080818E7F8C93A3E5B0E0E3E55E
:100DF000F0E0808182608C93A3E5B0E0E3E5F0E071
:100E000080818B7F8C93AFE5B0E0EFE5F0E08081EF
:100E100080688C93ECE5F0E01082E981FA818181B1
:100E2000882379F4A3E5B0E0E3E5F0E08081806217
:100E30008C93A3E5B0E0E3E5F0E080818F7E8C93B6
:100E40004FC0E981FA818181813009F049C0A3E571
:100E5000B0E0E3E5F0E0808180628C93A3E5B0E050
:100E6000E3E5F0E0808180618C933AC0E981FA810A
:100E700080818130A9F5A3E5B0E0E3E5F0E0808171
:100E800088608C93A3E5B0E0E3E5F0E080818064C6
:100E90008C93E981FA818181813079F4A3E5B0E016
:100EA000E3E5F0E0808180628C93A3E5B0E0E3E5C8
:100EB000F0E080818F7E8C9313C0E981FA8181817B
:100EC000882371F4A3E5B0E0E3E5F0E0808180627F
:100ED0008C93A3E5B0E0E3E5F0E0808180618C9342
:100EE000E981FA818281282F30E03C832B838B813A
:100EF0009C818130910561F12B813C81223031054B
:100F00002CF48B819C81009769F063C02B813C811C
:100F10002230310599F18B819C818330910509F450
:100F200043C057C0A3E5B0E0E3E5F0E080818E7FE9
:100F30008C93A3E5B0E0E3E5F0E0808182608C93E0
:100F4000A3E5B0E0E3E5F0E080818B7F8C9341C0C6
:100F5000A3E5B0E0E3E5F0E0808181608C93A3E558
:100F6000B0E0E3E5F0E0808182608C93A3E5B0E03F
:100F7000E3E5F0E080818B7F8C932BC0A3E5B0E0AC
:100F8000E3E5F0E080818E7F8C93A3E5B0E0E3E5BC
:100F9000F0E080818D7F8C93A3E5B0E0E3E5F0E0A5
:100FA000808184608C9315C0A3E5B0E0E3E5F0E0B8
:100FB000808181608C93A3E5B0E0E3E5F0E080817F
:100FC0008D7F8C93A3E5B0E0E3E5F0E08081846061
:100FD0008C930F900F900F900F90CF91DF91089509
:100FE000DF93CF930F92CDB7DEB78983ECE5F0E0C6
:100FF000898180830F90CF91DF910895DF93CF9304
:1010000000D0CDB7DEB79A83898389819A81909386
:101010008B0080938A000F900F90CF91DF910895FD
:101020001F920F920FB60F9211242F933F934F935D
:101030005F936F937F938F939F93AF93BF93EF9340
:10104000FF93DF93CF93CDB7DEB780918A00909165
:101050008B00009729F0E0918A00F0918B000995B0
:10106000CF91DF91FF91EF91BF91AF919F918F91C0
:101070007F916F915F914F913F912F910F900FBE94
:101080000F901F9018951F920F920FB60F92112478
:101090002F933F934F935F936F937F938F939F9380
:1010A000AF93BF93EF93FF93DF93CF93CDB7DEB7AB
:1010B00080918A0090918B00009729F0E0918A003E
:1010C000F0918B000995CF91DF91FF91EF91BF9146
:1010D000AF919F918F917F916F915F914F913F91D0
:1010E0002F910F900FBE0F901F901895DF93CF9305
:1010F000CDB7DEB72A970FB6F894DEBF0FBECDBFCF
:101100009A838983E981FA818081882309F08EC0DE
:1011100083E062E040E00E949B0A83E062E041E0FD
:101120000E94AE0BE981FA818181282F30E0398756
:101130002887888599858130910521F12885398511
:10114000223031052CF488859985009761F047C0DD
:10115000288539852230310521F1888599858330AC
:10116000910571F13CC0A5E5B0E0E5E5F0E08081D6
:101170008E7F8C93A5E5B0E0E5E5F0E080818D7F82
:101180008C9330C0A5E5B0E0E5E5F0E080818160BA
:101190008C93A5E5B0E0E5E5F0E080818D7F8C9350
:1011A00021C0A5E5B0E0E5E5F0E080818E7F8C937D
:1011B000A5E5B0E0E5E5F0E0808182608C9312C0A7
:1011C000A5E5B0E0E5E5F0E0808181608C93A5E5E0
:1011D000B0E0E5E5F0E0808182608C9303C091E0AF
:1011E0009F8314C1E981FA818281882341F4ABE5B0
:1011F000B0E0EBE5F0E080818F7B8C9306C1E98164
:10120000FA818281813079F4ABE5B0E0EBE5F0E082
:10121000808180648C93AFE5B0E0EFE5F0E0808101
:1012200080688C93F2C022E02F83F0C0E981FA81BC
:101230008081813009F08EC083E063E040E00E944D
:101240009B0A83E063E041E00E94AE0BE981FA81F2
:101250008181282F30E03E832D838D819E818130D6
:10126000910521F12D813E81223031052CF48D81B3
:101270009E81009761F047C02D813E81223031056B
:1012800021F18D819E818330910571F13CC0A5E5EE
:10129000B0E0E5E5F0E080818B7F8C93A5E5B0E0E0
:1012A000E5E5F0E08081877F8C9330C0A5E5B0E074
:1012B000E5E5F0E0808184608C93A5E5B0E0E5E5AC
:1012C000F0E08081877F8C9321C0A5E5B0E0E5E563
:1012D000F0E080818B7F8C93A5E5B0E0E5E5F0E060
:1012E000808188608C9312C0A5E5B0E0E5E5F0E070
:1012F000808184608C93A5E5B0E0E5E5F0E0808135
:1013000088608C9303C091E09F8380C0E981FA815B
:101310008281882341F4ABE5B0E0EBE5F0E0808129
:101320008F778C9372C0E981FA818281813079F460
:10133000ABE5B0E0EBE5F0E0808180688C93AFE551
:10134000B0E0EFE5F0E0808180688C935EC022E041
:101350002F835CC0E981FA818081823009F053C01B
:1013600081E062E040E00E949B0A81E062E041E0AF
:101370000E94AE0BE981FA818181282F30E03C8305
:101380002B838B819C818230910531F02B813C81B4
:101390002330310549F010C0A4E5B0E0E4E5F0E009
:1013A00080818F7B8C930BC0A4E5B0E0E4E5F0E096
:1013B000808180648C9303C031E03F8327C0E98142
:1013C000FA818281882341F4ABE5B0E0EBE5F0E0FF
:1013D00080818F7D8C9319C0E981FA81828181306F
:1013E00079F4ABE5B0E0EBE5F0E0808180628C93CE
:1013F000AFE5B0E0EFE5F0E0808180688C9305C058
:1014000082E08F8303C01F8201C002C09F819A8740
:101410008A852A960FB6F894DEBF0FBECDBFCF9156
:10142000DF910895DF93CF9300D00F92CDB7DEB751
:101430009A838983E981FA818081882379F4EAE5B6
:10144000F0E080818295869586958370882F90E064
:1014500081709070009799F31B8221C0E981FA8115
:101460008081813039F4EAE5F0E080818823DCF77F
:101470001B8215C0E981FA818081823071F4EAE52E
:10148000F0E08081829586958770882F90E081704A
:1014900090700097A1F31B8202C081E08B838B8147
:1014A0000F900F900F90CF91DF9108951F920F92A0
:1014B0000FB60F9211242F933F934F935F936F9327
:1014C0007F938F939F93AF93BF93EF93FF93DF939C
:1014D000CF93CDB7DEB780918C0090918D000097AF
:1014E00029F0E0918C00F0918D000995CF91DF916A
:1014F000FF91EF91BF91AF919F918F917F916F91EC
:101500005F914F913F912F910F900FBE0F901F90C1
:101510001895DF93CF9300D0CDB7DEB79A83898338
:1015200089819A8190938D0080938C000F900F9009
:10153000CF91DF910895DF93CF93CDB7DEB7289792
:101540000FB6F894DEBF0FBECDBF89836A834B838D
:101550008A81883008F0F6C08B81882309F077C033
:101560008981282F30E038872F838F8198858130BB
:10157000910559F12F813885223031052CF48F8166
:101580009885009769F060C02F8138852230310539
:1015900089F18F8198858330910509F440C054C04A
:1015A000AAE3B0E0EAE3F0E08081482F8A81282FA7
:1015B00030E081E090E0022E02C0880F991F0A946B
:1015C000E2F7809584238C93BBC0A7E3B0E0E7E308
:1015D000F0E08081482F8A81282F30E081E090E080
:1015E000022E02C0880F991F0A94E2F78095842387
:1015F0008C93A6C0A4E3B0E0E4E3F0E08081482F40
:101600008A81282F30E081E090E0022E02C0880F0E
:10161000991F0A94E2F7809584238C9391C0A1E3EB
:10162000B0E0E1E3F0E08081482F8A81282F30E0AC
:1016300081E090E0022E02C0880F991F0A94E2F721
:10164000809584238C937CC091E09E837DC08B81A8
:10165000813009F072C08981282F30E03D832C83CE
:101660008C819D818130910549F12C813D81223011
:1016700031052CF48C819D81009761F05BC02C8139
:101680003D812230310571F18C819D81833091053E
:10169000E9F150C0AAE3B0E0EAE3F0E08081482F2E
:1016A0008A81282F30E081E090E0022E02C0880F6E
:1016B000991F0A94E2F7842B8C9342C0A7E3B0E011
:1016C000E7E3F0E08081482F8A81282F30E081E035
:1016D00090E0022E02C0880F991F0A94E2F7842B33
:1016E0008C932EC0A4E3B0E0E4E3F0E08081482FC7
:1016F0008A81282F30E081E090E0022E02C0880F1E
:10170000991F0A94E2F7842B8C931AC0A1E3B0E0EE
:10171000E1E3F0E08081482F8A81282F30E081E0EA
:1017200090E0022E02C0880F991F0A94E2F7842BE2
:101730008C9306C091E09E8307C023E02E8304C0F3
:101740001E8202C032E03E838E8128960FB6F89446
:10175000DEBF0FBECDBFCF91DF910895DF93CF9352
:10176000CDB7DEB728970FB6F894DEBF0FBECDBF5A
:1017700089836A834B838A81883008F0F6C08B8125
:10178000882309F077C08981282F30E038872F839C
:101790008F8198858130910559F12F8138852230CC
:1017A00031052CF48F819885009769F060C02F81F6
:1017B00038852230310589F18F81988583309105F4
:1017C00009F440C054C0ABE3B0E0EBE3F0E080814B
:1017D000482F8A81282F30E081E090E0022E02C05D
:1017E000880F991F0A94E2F7809584238C93BBC0DD
:1017F000A8E3B0E0E8E3F0E08081482F8A81282F59
:1018000030E081E090E0022E02C0880F991F0A9418
:10181000E2F7809584238C93A6C0A5E3B0E0E5E3CE
:10182000F0E08081482F8A81282F30E081E090E02D
:10183000022E02C0880F991F0A94E2F78095842334
:101840008C9391C0A2E3B0E0E2E3F0E08081482F06
:101850008A81282F30E081E090E0022E02C0880FBC
:10186000991F0A94E2F7809584238C937CC091E0C1
:101870009E837DC08B81813009F072C08981282FC1
:1018800030E03D832C838C819D818130910549F12D
:101890002C813D81223031052CF48C819D81009773
:1018A00061F05BC02C813D812230310571F18C816A
:1018B0009D8183309105E9F150C0ABE3B0E0EBE3EB
:1018C000F0E08081482F8A81282F30E081E090E08D
:1018D000022E02C0880F991F0A94E2F7842B8C9382
:1018E00042C0A8E3B0E0E8E3F0E08081482F8A81BD
:1018F000282F30E081E090E0022E02C0880F991F6F
:101900000A94E2F7842B8C932EC0A5E3B0E0E5E3C4
:10191000F0E08081482F8A81282F30E081E090E03C
:10192000022E02C0880F991F0A94E2F7842B8C9331
:101930001AC0A2E3B0E0E2E3F0E08081482F8A81A0
:10194000282F30E081E090E0022E02C0880F991F1E
:101950000A94E2F7842B8C9306C091E09E8307C023
:1019600023E02E8304C01E8202C032E03E838E81BB
:1019700028960FB6F894DEBF0FBECDBFCF91DF9192
:101980000895DF93CF93CDB7DEB727970FB6F894BE
:10199000DEBF0FBECDBF89836A835C834B838A81A0
:1019A000883008F076C08981282F30E03F832E836D
:1019B0004E815F814130510559F18E819F81823086
:1019C000910534F42E813F812115310569F05CC009
:1019D0004E815F814230510579F18E819F81833044
:1019E000910509F43DC050C0E9E3F0E08081282F63
:1019F00030E08A81882F90E0A90102C05595479573
:101A00008A95E2F7CA018170EB81FC8180833FC037
:101A1000E6E3F0E08081282F30E08A81882F90E093
:101A2000A90102C0559547958A95E2F7CA018170D0
:101A3000EB81FC8180832BC0E3E3F0E08081282FE1
:101A400030E08A81882F90E0A90102C05595479522
:101A50008A95E2F7CA018170EB81FC81808317C00F
:101A6000E0E3F0E08081282F30E08A81882F90E049
:101A7000A90102C0559547958A95E2F7CA01817080
:101A8000EB81FC81808303C051E05D8304C01D8233
:101A900002C082E08D838D8127960FB6F894DEBF59
:101AA0000FBECDBFCF91DF910895DF93CF9300D0CC
:101AB00000D00F92CDB7DEB789836A838981282F42
:101AC00030E03D832C838C819D8181309105D1F064
:101AD0002C813D81223031052CF48C819D81009731
:101AE00061F01FC02C813D812230310581F08C8155
:101AF0009D818330910581F014C0EAE3F0E08A8192
:101B0000808312C0E7E3F0E08A8180830DC0E4E3C4
:101B1000F0E08A81808308C0E1E3F0E08A8180837D
:101B200003C091E09B8301C01B828B810F900F90BB
:101B30000F900F900F90CF91DF910895DF93CF9387
:101B400000D000D00F92CDB7DEB789836A83898138
:101B5000282F30E03D832C838C819D81813091053D
:101B6000D1F02C813D81223031052CF48C819D8176
:101B7000009761F01FC02C813D812230310581F03A
:101B80008C819D818330910581F014C0EBE3F0E0FE
:101B90008A81808312C0E8E3F0E08A8180830DC0EF
:101BA000E5E3F0E08A81808308C0E2E3F0E08A8127
:101BB000808303C091E09B8301C01B828B810F90C7
:101BC0000F900F900F900F90CF91DF910895DF93BA
:101BD000CF9300D000D000D0CDB7DEB789837B8310
:101BE0006A838A819B81009709F440C08981282FEC
:101BF00030E03E832D838D819E8181309105E1F01F
:101C00002D813E81223031052CF48D819E810097FB
:101C100061F027C02D813E8122303105A1F08D81F8
:101C20009E8183309105B1F01CC0E9E3F0E0808132
:101C3000EA81FB81808318C0E6E3F0E08081EA81DD
:101C4000FB81808311C0E3E3F0E08081EA81FB81C6
:101C500080830AC0E0E3F0E08081EA81FB81808339
:101C600003C091E09C8304C01C8202C025E02C8349
:101C70008C8126960FB6F894DEBF0FBECDBFCF91F4
:101C8000DF910895DF93CF93CDB7DEB7A7E2B0E041
:101C9000E7E2F0E0808180648C93A7E2B0E0E7E2C5
:101CA000F0E080818F778C93A7E2B0E0E7E2F0E08C
:101CB000808180628C93A6E2B0E0E6E2F0E0808171
:101CC00080688C93CF91DF910895DF93CF9300D0FC
:101CD000CDB7DEB789830F900F90CF91DF91089534
:101CE000DF93CF9300D000D000D0CDB7DEB79B8379
:101CF0008A837D836C83EA81FB818281882331F52D
:101D0000EA81FB818081EA81FB819181692F40E03A
:101D10000E949B0AEA81FB818081EA81FB8191819B
:101D2000692F41E00E94AE0BEA81FB818081EA814C
:101D3000FB819181692F9E012F5F3F4FA9010E9476
:101D4000C10C8981EC81FD8180833CC0EA81FB81EB
:101D50008281813091F4EA81FB818081EA81FB817B
:101D60009181692F9E012F5F3F4FA9010E94C10CF5
:101D70008981EC81FD81808325C0EA81FB8182819C
:101D80008230E1F4EA81FB818081EA81FB819181EB
:101D9000692F9E012F5F3F4FA9010E94C10C8981CD
:101DA000813021F4EC81FD8110820CC0898188236F
:101DB00049F4EC81FD8181E0808304C081E08E8361
:101DC0008E8100C026960FB6F894DEBF0FBECDBF41
:101DD000CF91DF910895DF93CF9300D000D00F9281
:101DE000CDB7DEB79A838983E981FA818081E98161
:101DF000FA819181692F41E00E949B0AE981FA8171
:101E00008281282F30E03C832B838B819C8100973B
:101E100031F02B813C812130310561F016C0E98120
:101E2000FA818081E981FA819181692F41E00E94E4
:101E3000AE0B0FC0E981FA818081E981FA8191813D
:101E4000692F40E00E94AE0B04C080E08D838D813D
:101E500000C00F900F900F900F900F90CF91DF91D7
:101E60000895DF93CF9300D000D00F92CDB7DEB7A7
:101E70009A838983E981FA818081E981FA8191815C
:101E8000692F41E00E949B0AE981FA818281282F13
:101E900030E03C832B838B819C81009731F02B8138
:101EA0003C812130310561F016C0E981FA818081E1
:101EB000E981FA819181692F40E00E94AE0B0FC049
:101EC000E981FA818081E981FA819181692F41E07C
:101ED0000E94AE0B04C080E08D838D8100C00F9006
:101EE0000F900F900F900F90CF91DF910895DF9397
:101EF000CF93CDB7DEB76F970FB6F894DEBF0FBEA6
:101F0000CDBF8D8F7F8F6E8FEE8DFF8D8081482F9F
:101F100050E0EE8DFF8D8381282F30E0CA01B9019A
:101F200040E050E00E94AE0BEE8DFF8D8181482F86
:101F300050E0EE8DFF8D8481282F30E0CA01B90179
:101F400040E050E00E94AE0BEE8DFF8D8681482F61
:101F500050E08D8D282F30E0CA01B9010E949E0DFE
:101F6000EE8DFF8D8281482F50E0EE8DFF8D8581B3
:101F7000282F30E0CA01B90141E050E00E94AE0BC9
:101F800080E090E0A0E8BFE3898F9A8FAB8FBC8F91
:101F9000698D7A8D8B8D9C8D20E030E04AEF54E482
:101FA0000E941F02DC01CB018D8B9E8BAF8BB88F03
:101FB0006D897E898F89988D20E030E040E85FE36D
:101FC0000E94790388232CF481E090E09C8B8B8B1A
:101FD0003FC06D897E898F89988D20E03FEF4FE764
:101FE00057E40E94190318164CF5698D7A8D8B8D74
:101FF0009C8D20E030E040E251E40E941F02DC01B1
:10200000CB01BC01CD010E944900DC01CB019C8BBE
:102010008B8B0FC088EC90E09A8B898B89899A8989
:102020000197F1F79A8B898B8B899C8901979C8BFF
:102030008B8B8B899C89009769F714C06D897E8989
:102040008F89988D0E944900DC01CB019C8B8B8B82
:102050008B899C89988B8F878F8598890197F1F759
:10206000988B8F87EE8DFF8D8281482F50E0EE8D0B
:10207000FF8D8581282F30E0CA01B90140E050E092
:102080000E94AE0B80E090E0A0E8BFE38B879C87C6
:10209000AD87BE876B857C858D859E8520E030E091
:1020A0004AEF54E40E941F02DC01CB018F83988722
:1020B000A987BA876F81788589859A8520E030E085
:1020C00040E85FE30E94790388232CF481E090E0EC
:1020D0009E838D833FC06F81788589859A8520E0B6
:1020E0003FEF4FE757E40E94190318164CF56B8534
:1020F0007C858D859E8520E030E040E251E40E94A1
:102100001F02DC01CB01BC01CD010E944900DC01B2
:10211000CB019E838D830FC088EC90E09C838B83E2
:102120008B819C810197F1F79C838B838D819E81AC
:1021300001979E838D838D819E81009769F714C0DE
:102140006F81788589859A850E944900DC01CB01E1
:102150009E838D838D819E819A83898389819A81D3
:102160000197F1F79A8389836F960FB6F894DEBFD3
:102170000FBECDBFCF91DF910895DF93CF9300D0F5
:1021800000D00F92CDB7DEB79B838A836C834D83DB
:1021900019828C81882319F48D81898306C08C81F2
:1021A000813019F48D81805C8983898180582A81EE
:1021B0003B81B9010E94770F0F900F900F900F9005
:1021C0000F90CF91DF910895DF93CF93CDB7DEB716
:1021D0006F970FB6F894DEBF0FBECDBF8D8F7F8F88
:1021E0006E8FEE8DFF8D8081482F50E0EE8DFF8D3C
:1021F0008381282F30E0CA01B90141E050E00E94FC
:10220000AE0BEE8DFF8D8181482F50E0EE8DFF8D5E
:102210008481282F30E0CA01B90140E050E00E94DB
:10222000AE0BEE8DFF8D8681482F50E08D8D282FCF
:1022300030E0CA01B9010E949E0DEE8DFF8D8281B2
:10224000482F50E0EE8DFF8D8581282F30E0CA01A8
:10225000B90141E050E00E94AE0B80E090E0A0E8C0
:10226000BFE3898F9A8FAB8FBC8F698D7A8D8B8DF1
:102270009C8D20E030E04AEF54E40E941F02DC0114
:10228000CB018D8B9E8BAF8BB88F6D897E898F89AB
:10229000988D20E030E040E85FE30E9479038823D6
:1022A0002CF481E090E09C8B8B8B3FC06D897E8904
:1022B0008F89988D20E03FEF4FE757E40E94190384
:1022C00018164CF5698D7A8D8B8D9C8D20E030E051
:1022D00040E251E40E941F02DC01CB01BC01CD01B0
:1022E0000E944900DC01CB019C8B8B8B0FC088ECDA
:1022F00090E09A8B898B89899A890197F1F79A8B5B
:10230000898B8B899C8901979C8B8B8B8B899C8972
:10231000009769F714C06D897E898F89988D0E9416
:102320004900DC01CB019C8B8B8B8B899C89988B22
:102330008F878F8598890197F1F7988B8F87EE8D1E
:10234000FF8D8281482F50E0EE8DFF8D8581282FF3
:1023500030E0CA01B90140E050E00E94AE0B80E0DD
:1023600090E0A0E8BFE38B879C87AD87BE876B8535
:102370007C858D859E8520E030E04AEF54E40E9404
:102380001F02DC01CB018F839887A987BA876F81F1
:10239000788589859A8520E030E040E85FE30E94F7
:1023A000790388232CF481E090E09E838D833FC0E5
:1023B0006F81788589859A8520E03FEF4FE757E464
:1023C0000E94190318164CF56B857C858D859E85BA
:1023D00020E030E040E251E40E941F02DC01CB012A
:1023E000BC01CD010E944900DC01CB019E838D839D
:1023F0000FC088EC90E09C838B838B819C8101973C
:10240000F1F79C838B838D819E8101979E838D83C1
:102410008D819E81009769F714C06F8178858985C9
:102420009A850E944900DC01CB019E838D838D81BA
:102430009E819A83898389819A810197F1F79A8392
:1024400089836F960FB6F894DEBF0FBECDBFCF91D4
:10245000DF910895DF93CF93CDB7DEB727970FB6FF
:10246000F894DEBF0FBECDBF9C838B836D835F83EB
:102470004E832E813F818D81B9010E94E4108D81B0
:10248000882F90E00896880F991F880F991F880F52
:10249000991F2E813F81B9010E94770F1A821982FC
:1024A00012C029813A818B819C81FC01E20FF31FCC
:1024B00080812E813F81B9010E94E41089819A8137
:1024C00001969A83898389819A81883091054CF39A
:1024D00027960FB6F894DEBF0FBECDBFCF91DF9128
:1024E0000895DF93CF93CDB7DEB727970FB6F89453
:1024F000DEBF0FBECDBF9E838D836F831C821B8288
:1025000081E08A8319828F818823B9F52D813E81EC
:1025100080E3B9010E94E41030C08C81882F90E0E4
:102520009C01220F331FC901880F991F880F991F23
:10253000820F931F282F8F819AE0692F0E94DE1B44
:10254000892F820F8C838C81882371F48A81882F54
:1025500090E09C01220F331FC901880F991F880F3B
:10256000991F820F931F8A838F819AE0692F0E949F
:10257000DE1B8F838F818823E1F08F81882369F6AA
:1025800018C08C819AE0692F0E94DE1B892F8B83F3
:102590008B81805D2D813E81B9010E94E4108C8188
:1025A000882339F48A818A3020F081E089838A8106
:1025B0008C839C818981981721F727960FB6F89410
:1025C000DEBF0FBECDBFCF91DF910895DF93CF93D4
:1025D00000D000D00F92CDB7DEB79B838A837D8376
:1025E0006C83198211C08981282F30E08A819B81F8
:1025F000FC01E20FF31F80812C813D81B9010E9413
:10260000E41089818F5F89838981282F30E08A8156
:102610009B81FC01E20FF31F8081882321F70F903B
:102620000F900F900F900F90CF91DF910895DF934F
:10263000CF93CDB7DEB76E970FB6F894DEBF0FBE5F
:10264000CDBF9E8F8D8FED8DFE8D8081482F50E008
:10265000ED8DFE8D8381282F30E0CA01B90140E065
:1026600050E00E94AE0BED8DFE8D8181482F50E031
:10267000ED8DFE8D8481282F30E0CA01B90140E044
:1026800050E00E94AE0BED8DFE8D8681882F90E08C
:1026900061E070E00E949E0DED8DFE8D8281482FDD
:1026A00050E0ED8DFE8D8581282F30E0CA01B90103
:1026B00041E050E00E94AE0B80E090E0A0E8BFE374
:1026C000898F9A8FAB8FBC8F698D7A8D8B8D9C8D06
:1026D00020E030E04AEF54E40E941F02DC01CB010D
:1026E0008D8B9E8BAF8BB88F6D897E898F89988DEE
:1026F00020E030E040E85FE30E94790388232CF477
:1027000081E090E09C8B8B8B3FC06D897E898F89A7
:10271000988D20E03FEF4FE757E40E941903181609
:102720004CF5698D7A8D8B8D9C8D20E030E040E2F8
:1027300051E40E941F02DC01CB01BC01CD010E94CB
:102740004900DC01CB019C8B8B8B0FC088EC90E0A7
:102750009A8B898B89899A890197F1F79A8B898B52
:102760008B899C8901979C8B8B8B8B899C8900978B
:1027700069F714C06D897E898F89988D0E94490000
:10278000DC01CB019C8B8B8B8B899C89988B8F87F1
:102790008F8598890197F1F7988B8F87ED8DFE8D46
:1027A0008281482F50E0ED8DFE8D8581282F30E00D
:1027B000CA01B90140E050E00E94AE0B80E090E019
:1027C000A0E8BFE38B879C87AD87BE876B857C8540
:1027D0008D859E8520E030E04AEF54E40E941F0280
:1027E000DC01CB018F839887A987BA876F817885B1
:1027F00089859A8520E030E040E85FE30E94790314
:1028000088232CF481E090E09E838D833FC06F810C
:10281000788589859A8520E03FEF4FE757E40E944D
:10282000190318164CF56B857C858D859E8520E0F7
:1028300030E040E251E40E941F02DC01CB01BC0108
:10284000CD010E944900DC01CB019E838D830FC026
:1028500088EC90E09C838B838B819C810197F1F7BE
:102860009C838B838D819E8101979E838D838D8137
:102870009E81009769F714C06F81788589859A8554
:102880000E944900DC01CB019E838D838D819E8156
:102890009A83898389819A810197F1F79A83898341
:1028A0006E960FB6F894DEBF0FBECDBFCF91DF910D
:1028B0000895DF93CF93CDB7DEB7EA970FB6F894BC
:1028C000DEBF0FBECDBF9AAF89AFE9ADFAAD808153
:1028D000482F50E0E9ADFAAD8381282F30E0CA01DE
:1028E000B90141E050E00E949B0AE9ADFAAD818157
:1028F000482F50E0E9ADFAAD8481282F30E0CA01BD
:10290000B90141E050E00E949B0AE9ADFAAD828135
:10291000482F50E0E9ADFAAD8581282F30E0CA019B
:10292000B90141E050E00E949B0AE9ADFAAD868111
:10293000882F90E06FEF70E00E94550D80E090E0EE
:10294000A0E2B2E48DAB9EABAFABB8AF6DA97EA9F0
:102950008FA998AD20E030E04AEF54E40E941F02B6
:10296000DC01CB0189AB9AABABABBCAB69A97AA953
:102970008BA99CA920E030E040E85FE30E94790346
:1029800088232CF481E090E098AB8FA73FC069A921
:102990007AA98BA99CA920E03FEF4FE757E40E945A
:1029A000190318164CF56DA97EA98FA998AD20E0E2
:1029B00030E040E251E40E941F02DC01CB01BC0187
:1029C000CD010E944900DC01CB0198AB8FA70FC05D
:1029D00088EC90E09EA78DA78DA59EA50197F1F7A5
:1029E0009EA78DA78FA598A9019798AB8FA78FA5B4
:1029F00098A9009769F714C069A97AA98BA99CA91D
:102A00000E944900DC01CB0198AB8FA78FA598A944
:102A10009CA78BA78BA59CA50197F1F79CA78BA7DB
:102A200029AD3AAD88E3B9010E94770F80E090E0CC
:102A3000A0E8BFE38FA398A7A9A7BAA76FA178A51D
:102A400089A59AA520E030E04AEF54E40E941F02D5
:102A5000DC01CB018BA39CA3ADA3BEA36BA17CA186
:102A60008DA19EA120E030E040E85FE30E94790361
:102A700088232CF481E090E09AA389A33FC06BA146
:102A80007CA18DA19EA120E03FEF4FE757E40E947B
:102A9000190318164CF56FA178A589A59AA520E011
:102AA00030E040E251E40E941F02DC01CB01BC0196
:102AB000CD010E944900DC01CB019AA389A30FC07C
:102AC00088EC90E098A38F8F8F8D98A10197F1F7F4
:102AD00098A38F8F89A19AA101979AA389A389A10D
:102AE0009AA1009769F714C06BA17CA18DA19EA14A
:102AF0000E944900DC01CB019AA389A389A19AA174
:102B00009E8F8D8F8D8D9E8D0197F1F79E8F8D8F6E
:102B100029AD3AAD8CE0B9010E94770F80E090E0DA
:102B2000A0E8BFE3898F9A8FAB8FBC8F698D7A8DB8
:102B30008B8D9C8D20E030E04AEF54E40E941F0210
:102B4000DC01CB018D8B9E8BAF8BB88F6D897E891D
:102B50008F89988D20E030E040E85FE30E947903A0
:102B600088232CF481E090E09C8B8B8B3FC06D8997
:102B70007E898F89988D20E03FEF4FE757E40E94D0
:102B8000190318164CF5698D7A8D8B8D9C8D20E07C
:102B900030E040E251E40E941F02DC01CB01BC01A5
:102BA000CD010E944900DC01CB019C8B8B8B0FC0B7
:102BB00088EC90E09A8B898B89899A890197F1F743
:102BC0009A8B898B8B899C8901979C8B8B8B8B89AA
:102BD0009C89009769F714C06D897E898F89988DCB
:102BE0000E944900DC01CB019C8B8B8B8B899C89DB
:102BF000988B8F878F8598890197F1F7988B8F87AE
:102C000029AD3AAD81E0B9010E94770F80E090E0F4
:102C1000A0E0B0E48B879C87AD87BE876B857C8501
:102C20008D859E8520E030E04AEF54E40E941F022B
:102C3000DC01CB018F839887A987BA876F8178855C
:102C400089859A8520E030E040E85FE30E947903BF
:102C500088232CF481E090E09E838D833FC06F81B8
:102C6000788589859A8520E03FEF4FE757E40E94F9
:102C7000190318164CF56B857C858D859E8520E0A3
:102C800030E040E251E40E941F02DC01CB01BC01B4
:102C9000CD010E944900DC01CB019E838D830FC0D2
:102CA00088EC90E09C838B838B819C810197F1F76A
:102CB0009C838B838D819E8101979E838D838D81E3
:102CC0009E81009769F714C06F81788589859A8500
:102CD0000E944900DC01CB019E838D838D819E8102
:102CE0009A83898389819A810197F1F79A838983ED
:102CF000EA960FB6F894DEBF0FBECDBFCF91DF913D
:102D00000895DF93CF9300D0CDB7DEB71A821BC0F2
:102D10008A81882F90E0FC01E858FF4F908182E083
:102D2000692F40E00E949B0A8A81882F90E0FC0175
:102D3000E858FF4F908182E0692F41E00E94AE0B7E
:102D40008A818F5F8A838A81843010F384E089834B
:102D50001BC08981882F90E0FC01E858FF4F9081CB
:102D600082E0692F41E00E949B0A8981882F90E0D0
:102D7000FC01E858FF4F908182E0692F41E00E94FA
:102D8000AE0B89818F5F89838981883010F30F9022
:102D90000F90CF91DF910895DF93CF93CDB7DEB73A
:102DA00065970FB6F894DEBF0FBECDBF9D8B8C8BA1
:102DB0001A8A198A188A1F8684E08A8BE8C08A8951
:102DC000882F90E0FC01E858FF4F908182E0692F46
:102DD00040E00E94AE0B198AC4C08989882F90E018
:102DE000FC01E858FF4F90819E012D5E3F4F82E02D
:102DF000692FA9010E94C10C8B89882309F0AEC0FC
:102E000080E090E0A0E7B1E48B879C87AD87BE8728
:102E10006B857C858D859E8520E030E04AEF54E40B
:102E20000E941F02DC01CB018F839887A987BA8794
:102E30006F81788589859A8520E030E040E85FE3FE
:102E40000E94790388232CF481E090E09E838D8397
:102E50003FC06F81788589859A8520E03FEF4FE7F5
:102E600057E40E94190318164CF56B857C858D85F7
:102E70009E8520E030E040E251E40E941F02DC0128
:102E8000CB01BC01CD010E944900DC01CB019E8336
:102E90008D830FC088EC90E09C838B838B819C8119
:102EA0000197F1F79C838B838D819E8101979E838F
:102EB0008D838D819E81009769F714C06F8178851D
:102EC00089859A850E944900DC01CB019E838D8310
:102ED0008D819E819A83898389819A810197F1F7F7
:102EE0009A8389838989882F90E0FC01E858FF4FF5
:102EF00090819E012D5E3F4F82E0692FA9010E94C3
:102F0000C10C8B89882351F58989482F50E08A8923
:102F1000882F90E09C0124503040CA01880F991FEF
:102F2000880F991F820F931FFC01E859FF4F808182
:102F3000888B0FC08989882F90E0FC01E858FF4FEB
:102F400090819E012D5E3F4F82E0692FA9010E9472
:102F5000C10C8B89882371F381E08F8789898F5F0A
:102F6000898B8989843020F48F85882309F435CFB3
:102F70008A89882F90E0FC01E858FF4F908182E019
:102F8000692F41E00E94AE0B8A898F5F8A8B8A8904
:102F9000883020F48F85882309F411CFEC89FD89CE
:102FA0008889808365960FB6F894DEBF0FBECDBFCB
:102FB000CF91DF910895DF93CF93CDB7DEB72897F8
:102FC0000FB6F894DEBF0FBECDBF89837B836A83C3
:102FD000EA81FB8181816FEF0E94550DEA81FB81BF
:102FE0008081882309F098C08981282F30E03887B4
:102FF0002F838F8198858430910509F45FC02F81DC
:10300000388525303105DCF48F8198858130910534
:1030100009F43FC02F813885223031052CF48F818F
:103020009885009779F174C02F8138852230310559
:10303000B9F18F81988583309105C9F169C02F81DD
:1030400038852730310509F44EC08F819885883046
:1030500091055CF42F81388525303105B1F18F81E0
:10306000988586309105C1F153C02F81388528306D
:10307000310509F43FC08F8198858930910509F4A5
:1030800040C046C0EA81FB8181816FE30E949E0DB2
:1030900041C0EA81FB81818166E00E949E0D3AC0B9
:1030A000EA81FB8181816BE50E949E0D33C0EA813C
:1030B000FB8181816FE40E949E0D2CC0EA81FB811F
:1030C000818166E60E949E0D25C0EA81FB81818197
:1030D0006DE60E949E0D1EC0EA81FB8181816DE735
:1030E0000E949E0D17C0EA81FB81818167E00E94EA
:1030F0009E0D10C0EA81FB8181816FE70E949E0DC9
:1031000009C0EA81FB8181816FE60E949E0D02C0A9
:103110001E82A2C01E82A0C0EA81FB818081813014
:1031200009F098C08981282F30E03D832C838C8161
:103130009D818430910509F45FC02C813D8125304B
:103140003105DCF48C819D818130910509F43FC00B
:103150002C813D81223031052CF48C819D8100979A
:1031600079F174C02C813D8122303105B9F18C8117
:103170009D8183309105C9F169C02C813D81273043
:10318000310509F44EC08C819D81883091055CF435
:103190002C813D8125303105B1F18C819D818630B6
:1031A0009105C1F153C02C813D812830310509F4CE
:1031B0003FC08C819D818930910509F440C046C093
:1031C000EA81FB81818160EC0E949E0D41C0EA8111
:1031D000FB81818169EF0E949E0D3AC0EA81FB81EB
:1031E000818164EA0E949E0D33C0EA81FB81818166
:1031F00060EB0E949E0D2CC0EA81FB81818169E910
:103200000E949E0D25C0EA81FB81818162E90E94B6
:103210009E0D1EC0EA81FB81818162E80E949E0DA5
:1032200017C0EA81FB81818168EF0E949E0D10C06A
:10323000EA81FB81818160E00E949E0D09C0EA81E4
:10324000FB81818160E90E949E0D02C01E8204C044
:103250001E8202C091E09E838E8128960FB6F8945C
:10326000DEBF0FBECDBFCF91DF910895DF93CF9327
:10327000CDB7DEB7A9970FB6F894DEBF0FBECDBFAE
:103280009AA389A36BA34CA3E9A1FAA181816FEF53
:103290000E94550DE9A1FAA18081882309F01DC182
:1032A0008BA1882F90E098A38F8F0CC18F8D98A150
:1032B0009FA38EA38EA19FA18430910509F45FC0C6
:1032C0008EA19FA185309105DCF48EA19FA1813054
:1032D000910509F43FC08EA19FA1823091052CF485
:1032E0008EA19FA1009779F174C08EA19FA1823019
:1032F0009105B9F18EA19FA183309105C9F169C0F3
:103300008EA19FA18730910509F44EC08EA19FA187
:10331000883091055CF48EA19FA185309105B1F1B3
:103320008EA19FA186309105C1F153C08EA19FA1AE
:103330008830910509F43FC08EA19FA18930910585
:1033400009F440C046C0E9A1FAA181816FE30E945F
:103350009E0D41C0E9A1FAA1818166E00E949E0D07
:103360003AC0E9A1FAA181816BE50E949E0D33C0AC
:10337000E9A1FAA181816FE40E949E0D2CC0E9A110
:10338000FAA1818166E60E949E0D25C0E9A1FAA1FD
:1033900081816DE60E949E0D1EC0E9A1FAA1818186
:1033A0006DE70E949E0D17C0E9A1FAA1818167E037
:1033B0000E949E0D10C0E9A1FAA181816FE70E94D1
:1033C0009E0D09C0E9A1FAA181816FE60E949E0DC0
:1033D00002C01DA2A7C180E090E0AAEFB3E4898FEC
:1033E0009A8FAB8FBC8F698D7A8D8B8D9C8D20E0F1
:1033F00030E04AEF54E40E941F02DC01CB018D8BC8
:103400009E8BAF8BB88F6D897E898F89988D20E0D8
:1034100030E040E85FE30E94790388232CF481E0E8
:1034200090E09C8B8B8B3FC06D897E898F89988DB6
:1034300020E03FEF4FE757E40E94190318164CF5C0
:10344000698D7A8D8B8D9C8D20E030E040E251E4D7
:103450000E941F02DC01CB01BC01CD010E9449008A
:10346000DC01CB019C8B8B8B0FC088EC90E09A8B9E
:10347000898B89899A890197F1F79A8B898B8B8936
:103480009C8901979C8B8B8B8B899C89009769F712
:1034900014C06D897E898F89988D0E944900DC0156
:1034A000CB019C8B8B8B8B899C89988B8F878F858D
:1034B00098890197F1F7988B8F878F8D98A1019646
:1034C00098A38F8F8CA1282F30E08F8D98A128177B
:1034D00039070CF0EBCE1DA225C1E9A1FAA180812C
:1034E000813009F01DC18BA1882F90E09E8F8D8FB8
:1034F0000CC18D8D9E8D99A788A788A599A584302C
:10350000910509F45FC088A599A585309105DCF483
:1035100088A599A58130910509F43FC088A599A592
:10352000823091052CF488A599A5009779F174C093
:1035300088A599A582309105B9F188A599A5833010
:103540009105C9F169C088A599A58730910509F44D
:103550004EC088A599A5883091055CF488A599A5E9
:1035600085309105B1F188A599A586309105C1F105
:1035700053C088A599A58830910509F43FC088A556
:1035800099A58930910509F440C046C0E9A1FAA186
:10359000818160EC0E949E0D41C0E9A1FAA1818168
:1035A00069EF0E949E0D3AC0E9A1FAA1818164EA07
:1035B0000E949E0D33C0E9A1FAA1818160EB0E94B7
:1035C0009E0D2CC0E9A1FAA1818169E90E949E0D9E
:1035D00025C0E9A1FAA1818162E90E949E0D1EC069
:1035E000E9A1FAA1818162E80E949E0D17C0E9A1BC
:1035F000FAA1818168EF0E949E0D10C0E9A1FAA195
:10360000818160E00E949E0D09C0E9A1FAA181813B
:1036100060E90E949E0D02C01DA284C080E090E07F
:10362000AAEFB3E48B879C87AD87BE876B857C85CB
:103630008D859E8520E030E04AEF54E40E941F0211
:10364000DC01CB018F839887A987BA876F81788542
:1036500089859A8520E030E040E85FE30E947903A5
:1036600088232CF481E090E09E838D833FC06F819E
:10367000788589859A8520E03FEF4FE757E40E94DF
:10368000190318164CF56B857C858D859E8520E089
:1036900030E040E251E40E941F02DC01CB01BC019A
:1036A000CD010E944900DC01CB019E838D830FC0B8
:1036B00088EC90E09C838B838B819C810197F1F750
:1036C0009C838B838D819E8101979E838D838D81C9
:1036D0009E81009769F714C06F81788589859A85E6
:1036E0000E944900DC01CB019E838D838D819E81E8
:1036F0009A83898389819A810197F1F79A838983D3
:103700008D8D9E8D01969E8F8D8F8CA1282F30E000
:103710008D8D9E8D281739070CF0EBCE1DA202C0AF
:1037200091E09DA38DA1A9960FB6F894DEBF0FBEC0
:10373000CDBFCF91DF910895DF93CF9300D0CDB768
:10374000DEB7198283E890E00E9459140E94811626
:1037500081E063E041E00E949B0A80E890E00E94E3
:10376000C406CE0102960E94CC168A818823D1F02D
:103770008A818D33B9F08A8123E830E0B9010E9453
:10378000E4108981882F90E09C01220F331FC9012A
:10379000880F991F880F991F820F931F982F8A8176
:1037A000890F89838A818E3229F4198283E890E017
:1037B0000E94171389810E94F007D3CF991B79E0EB
:1037C00004C0991F961708F0961B881F7A95C9F7B1
:1037D000809508952F923F924F925F926F927F92C1
:1037E0008F929F92AF92BF92CF92DF92EF92FF9211
:1037F0000F931F93CF93DF93CDB7DEB7CA1BDB0BBD
:103800000FB6F894DEBF0FBECDBF09942A88398861
:1038100048885F846E847D848C849B84AA84B98468
:10382000C884DF80EE80FD800C811B81AA81B98174
:10383000CE0FD11D0FB6F894DEBF0FBECDBFED0188
:063840000895F894FFCF8B
:1038460000000000000000003738392E34353630CD
:103856003132333D2E303D2B0001020304050607AD
:0A3866000100000101010201000051
:00000001FF
